:100000000C94A3190C94D4190C94D4190C94D419ED
:100010000C94D4190C94D4190C94D4190C94D419AC
:100020000C94D4190C94D4190C94D4190C94D4199C
:100030000C94D4190C94D4190C94D4190C94D4198C
:100040000C94D4190C94A5850C94D4190C94D4193F
:100050000C94D4190C94D4190D94DF090D94CC038D
:100060000C94D4190C941A370C94D4190C94D419F8
:100070000C94D4190C94D4190C94D4190C94D4194C
:100080000C94D4190C94D4190C94D4190C94D4193C
:100090000C94D4190C94D4190C94D4190C94D4192C
:1000A0000C94D4190C94D4190C94D4190C94D4191C
:1000B0000C94D4190C94D4190C94D4190C94D4190C
:1000C0000C94D4190C94D4190C94D4190C94D419FC
:1000D0000C94D4190C94D4190C94D4190C94D419EC
:1000E0000C94D419A2BFABBFB5BFBEBFC7BFE2BFA0
:1000F000EFBFF8BFD0BFD9BFFA00EA00D600CA00F0
:100100000E01C600F600E200E400E000D200DA00D2
:100110000001D800C600EC00DE000C01DC00F40099
:10012000D000FC001A01F2000801F00018010601DD
:10013000EE000A010401D400F200CE00E600C8007F
:10014000084AD73B3BCE016E84BCBFFDC12F3D6C3E
:1001500074319ABD56833DDA3D00C77F11BED9E4A4
:10016000BB4C3E916BAAAABE000000803F05A84C84
:10017000CDB2D44EB93836A9020C50B99186880850
:100180003CA6AAAA2ABE000000803F000D944202AD
:100190000D9475030D94FE010D94AA170D9461033F
:1001A0000D94F2020D9421020D9457030D94FA015F
:1001B0000D942F020D9427020D94E8020D9439023C
:1001C0000D941D020D9413020D9419020D946B03EE
:1001D0000D94E11B0D940B020D9435020D94340324
:1001E0000D9418030D947F030D94ED020D940F02EE
:1001F0000D94DF1B0D9408020D94FC020D946531E3
:100200000D942B020D94A52B0D944D030D942A03F0
:100210000D9410030D943E030D943D020D940402C1
:100220000D94A8170D94E71B0D949A190D948E0444
:100230000D9420030D9406030D94E41B4E414E498A
:100240004E495459494E46CDCCCC3D0AD7233C1794
:10025000B7D13877CC2B329595E6241FB14F0A00E1
:100260000020410000C84200401C4620BCBE4CCAD1
:100270001B0E5AAEC59D74434F4D4D554E494341DB
:1002800054494F4E0044525952554E004552524F18
:10029000525300494E464F004543484F00536C654A
:1002A00065702E2E2E00205A3A200020593A200048
:1002B00042656420583A20004D65736820706F696C
:1002C0006E742063616E6E6F742062652072657358
:1002D0006F6C7665640A00526573756D696E672090
:1002E0007072696E7400416E796375626963204B48
:1002F0006F7373656C2072656164792E00436C695D
:10030000636B20746F20726573756D652E2E2E00E1
:100310004E6F206D6F76652E00456E642066696CA9
:1003200065206C6973740A00426567696E206669AE
:100330006C65206C6973740A004D3132350053448A
:10034000207072696E74696E67206279746520002E
:100350004E6F74205344207072696E74696E670A20
:100360000046696C652064656C657465643A004498
:10037000656C6574696F6E206661696C65642C20BC
:1003800046696C653A20006F70656E206661696C25
:1003900065642C2046696C653A20005072696E7461
:1003A0002074696D653A20000001363726FF023C53
:1003B0003D38FF0F2E303E1213FF0C0809FFFF07D8
:1003C0001A1C18FFFF08440A2C43FFFFFFFFFFFF22
:1003D00050726F7465637465642050696E0A006FB3
:1003E0006E2E0A006F66662E0A004732362044657C
:1003F00062756720006D0046696C616D656E7420E2
:10040000757365643A200053746174733A20002C4C
:10041000204C6F6E67657374206A6F623A200054D7
:100420006F74616C2074696D653A20005374617457
:10043000733A20002C204661696C65643A20002CD8
:100440002046696E69736865643A20005072696E6F
:1004500074733A200053746174733A20004525691F
:1004600020257300416E796375626963204B6F7359
:1004700073656C2072656164792E00980293028C1A
:1004800002850277026F66660044454255473A008E
:100490004B494C4C45442E20004D31313320530004
:1004A0006F6B0048656174696E6720646F6E652EBE
:1004B0000020573A0045256920257300416E796375
:1004C00075626963204B6F7373656C20726561643C
:1004D000792E0042656420646F6E652E004265646B
:1004E0002048656174696E672E00416E796375629C
:1004F0006963204B6F7373656C2072656164792E3C
:100500000050533A310A0050533A300A00416E7994
:100510006375626963204B6F7373656C204F666609
:100520002E00454D455247454E43595F5041525369
:10053000455200434153455F4C494748545F42523E
:10054000494748544E45535300544F47474C455F25
:100550004C494748545300534F4654574152455F06
:10056000504F574552004255494C445F5045524305
:10057000454E54004C4556454C494E475F44415406
:1005800041005A5F50524F4245004155544F4C452F
:1005900056454C005052494E545F4A4F420050520B
:1005A0004F4752455353004155544F5245504F52B7
:1005B000545F54454D5000564F4C554D455452498B
:1005C0004300454550524F4D0053455249414C5F01
:1005D000584F4E5F584F4646004649524D5741527C
:1005E000455F4E414D453A4D61726C696E20312E2A
:1005F000312E3820284769746875622920534F5579
:100600005243455F434F44455F55524C3A687474BA
:1006100070733A2F2F6769746875622E636F6D2F40
:100620004D61726C696E4669726D776172652F4DAE
:1006300061726C696E2050524F544F434F4C5F565D
:10064000455253494F4E3A312E30204D414348498F
:100650004E455F545950453A416E796375626963FE
:10066000204B6F7373656C20455854525544455266
:100670005F434F554E543A3120555549443A6365CE
:100680006465326132662D343161322D343734384D
:100690002D396231322D6335356336326633363764
:1006A00066660A002F2F20007A5F6D61783A20007D
:1006B0007A5F6D696E3A2000795F6D61783A20004B
:1006C000785F6D61783A20005265706F7274696E60
:1006D0006720656E6473746F7020737461747573D2
:1006E0000A0020643A0020693A0020703A00432949
:1006F0000A0061626C656420286D696E2074656D06
:10070000702000436F6C6420657874727564657343
:100710002061726520004B64200023646566696E69
:1007200065202044454641554C545F004B692000EC
:1007300023646566696E65202044454641554C54E6
:100740005F004B70200023646566696E652020445D
:10075000454641554C545F00504944204175746FE3
:1007600074756E652066696E6973686564212050D2
:10077000757420746865206C617374204B702C2034
:100780004B6920616E64204B6420636F6E737461EB
:100790006E74732066726F6D2062656C6F7720696E
:1007A0006E746F20436F6E66696775726174696FEE
:1007B0006E2E680A00504944204175746F74756E3E
:1007C00065206661696C6564212074696D656F756B
:1007D000740A00544845524D414C2052554E4157E1
:1007E000415900546865726D616C2052756E617775
:1007F00061790048656174696E67206661696C653E
:10080000640048656174696E67206661696C65643F
:1008100000504944204175746F74756E652066619F
:10082000696C6564212054656D70657261747572C0
:100830006520746F6F20686967680A00204B643A0E
:100840002000204B693A2000204B703A20000A20FB
:10085000436C617373696320504944200A0020543B
:10086000753A2000204B753A2000206D61783A20BF
:1008700000206D696E3A200020643A2000206269F1
:1008800061733A20004F66660A004661646520483D
:1008900065696768742000426564204C6576656C04
:1008A000696E6720004661696C656420746F20651D
:1008B0006E61626C6520426564204C6576656C698A
:1008C0006E670A004D65736820706F696E742063EF
:1008D000616E6E6F74206265207265736F6C7665F1
:1008E000640A004D34323120696E636F7272656341
:1008F0007420706172616D657465722075736167D3
:10090000650A003A2000207A5F6D696E3A20202D3A
:100910003230207A5F6D61783A202032300A005000
:10092000726F6265205A204F6666736574004E6F61
:100930002063617365206C696768740A00416374A1
:100940006976652045787472756465723A20005541
:100950006E6B6E6F776E20636F6D6D616E643A20A3
:1009600022004D6573682056616C69646174696F1B
:100970006E2053746F707065642E00696E206D6F09
:1009800076655F746F282920666565645F76616CA3
:10099000756520666F722058593A004C656176691A
:1009A0006E672047323600473236204865617469E9
:1009B0006E67204E6F7A7A6C652E0047323620487B
:1009C000656174696E67204265642E00446F6E65D0
:1009D000205072696D696E6700446F6E65205072B9
:1009E000696D696E67004669786564204C656E675D
:1009F0007468205072696D652E00557365722D43C1
:100A00006F6E74726F6C6C6564205072696D6500F6
:100A10002C2065793D0029202D3E202865783D0059
:100A20002C2073793D0020436F6E6E656374696E90
:100A300067207769746820766572746963616C20D9
:100A40006C696E65202873783D002C2065793D0027
:100A500029202D3E202865783D002C2073793D000B
:100A600020436F6E6E656374696E67207769746882
:100A700020686F72697A6F6E74616C206C696E6544
:100A8000202873783D004C656176696E6720473297
:100A900036002C2079693D00202020446F696E6764
:100AA00020636972636C652061743A202878693D1F
:100AB000003F53706563696669656420582C59204E
:100AC000636F6F7264696E617465206F7574206FF7
:100AD0006620626F756E64732E0A003F2852296586
:100AE000706561742076616C7565206E6F7420701E
:100AF0006C61757369626C653B206D7573742062FF
:100B000065206174206C6561737420312E0A003F8A
:100B1000537065636966696564206E6F7A7A6C6587
:100B20002074656D7065726174757265206E6F7486
:100B300020706C61757369626C652E0A003F53709A
:100B4000656369666965642066696C616D656E746C
:100B50002073697A65206E6F7420706C617573699B
:100B6000626C652E0A003F5370656369666965644F
:100B7000207072696D65206C656E677468206E6F99
:100B80007420706C61757369626C652E0A003F5346
:100B90007065636966696564206E6F7A7A6C65203A
:100BA00073697A65206E6F7420706C617573696209
:100BB0006C652E0A003F5370656369666965642041
:100BC00052657472616374696F6E204D756C7469DF
:100BD000706C696572206E6F7420706C61757369DA
:100BE000626C652E0A003F52657472616374696FAE
:100BF0006E204D756C7469706C696572206D7573CB
:100C000074206265207370656369666965642E0A85
:100C1000003F537065636966696564206C6179653E
:100C20007220686569676874206E6F7420706C61EB
:100C3000757369626C652E0A003F5370656369665F
:100C4000696564206265642074656D7065726174A5
:100C5000757265206E6F7420706C61757369626C5B
:100C6000652E0A0047323620636F6D6D616E642019
:100C7000737461727465642E2057616974696E675C
:100C800020666F72206865617465722873292E0A68
:100C9000002569730025696D202569730025696841
:100CA0002025696D20256973002569642025696800
:100CB0002025696D202569730025697920256964DF
:100CC000202569682025696D2025697300436F70B0
:100CD000792074686573652076616C75657320741E
:100CE0006F20436F6E66696775726174696F6E2EEF
:100CF000680020415F464143544F523A2000205241
:100D00005F464143544F523A2000485F46414354A6
:100D10004F523A200054756E696E67205400547526
:100D20006E696E6720520054756E696E67204500CB
:100D30004155544F2054554E4520626173656C698E
:100D40006E6500253033692E7800302E25303369EA
:100D5000002073643A00737464206465763A00730B
:100D60007464206465763A004E6F20636F6E76651A
:100D70007267656E636500497465726174696F6E50
:100D8000203A2025303269005361766520776974F6
:100D900068204D35303020616E642F6F7220636F94
:100DA000707920746F20436F6E6669677572617425
:100DB000696F6E2E6800253033692E7800302E253D
:100DC0003033690043616C6962726174696F6E20CF
:100DD00073643A00726F6C6C696E67206261636B5A
:100DE0002E00737464206465763A0043616C696216
:100DF000726174696F6E204F4B00456E64204452DF
:100E0000592D52554E00436F7272656374206465AC
:100E10006C74615F726164697573207769746820AE
:100E20004D3636352052206F7220656E642D7374F6
:100E30006F70732077697468204D363636205820DD
:100E400059205A0020284452592D52554E2900430A
:100E50006865636B696E672E2E2E204143003F2824
:100E60004D36363520422965642072616469757398
:100E700020697320696D706C61757369626C652E91
:100E80000A00473333204175746F2043616C6962F7
:100E9000726174650A003F2846296F726365206994
:100EA0007465726174696F6E20697320696D706C0E
:100EB00061757369626C652028302D3330292E0AE4
:100EC000003F284329616C6962726174696F6E200A
:100ED000707265636973696F6E20697320696D70E4
:100EE0006C61757369626C6520283E3D30292E0A5D
:100EF000003F2856296572626F7365206C657665C0
:100F00006C20697320696D706C61757369626C65C2
:100F10002028302D33292E0A003F2850296F696E72
:100F2000747320697320696D706C61757369626C8C
:100F3000652028302D3130292E0A004572726F72DB
:100F40002077726974696E6720746F20454550522E
:100F50004F4D210A00290A002062797465733B20F5
:100F6000637263200053657474696E6773205374F1
:100F70006F72656420280020746F6F206C6F6E673D
:100F800020657874727573696F6E2070726576650E
:100F90006E7465640A0020636F6C642065787472F7
:100FA0007573696F6E2070726576656E7465640A1C
:100FB00000486F6D6520257325732573206669725F
:100FC0007374002066697273740A005A00590058DD
:100FD00000486F6D65200050726F62696E67206611
:100FE00061696C65640A0050726F62696E672066A1
:100FF00061696C656400205A3A200020593A20004B
:1010000042656420583A200042696C696E656172DD
:10101000204C6576656C696E6720477269643A0A90
:101020000047322F47332062616420706172616D26
:1010300065746572730A00486F6D696E672066613A
:10104000696C65640A00486F6D696E672066616946
:101050006C65640000000000000000009A99934352
:1010600024F4D43050C38E20C2A24017828B70115A
:10107000127A910D816CD90AA861E108C7586607F8
:10108000615143061E4B5D05C145A7041A41110479
:10109000093D9803713931034036DB026533910213
:1010A000D4305402802E1D02632CEE01752AC50136
:1010B000B028A001102781018F2564012B244B014A
:1010C000E0223401AC211F018D200D01801FFC00A6
:1010D000841EED00971DDF00B81CD200E61BC60081
:1010E000201BBC00641AB200B219A8000A19A000A3
:1010F0006A189900D117910040178B00B51684002B
:1011000031167E00B31579003A157300C7146F00CD
:1011100058146A00EE1366008813630025135E00FE
:10112000C7125B006C12570015125400C111510018
:1011300070114F0021114B00D61049008D1047004F
:101140004610440002104200C00F4000800F3E00D5
:10115000420F3C00060F3B00CB0E3800930E3700C9
:101160005C0E3500270E3400F30D3200C10D310046
:10117000900D3000600D2E00320D2D00050D2C005D
:10118000D90C2B00AE0C2900850C29005C0C270023
:10119000350C27000E0C2600E80B2400C40B24009D
:1011A000A00B23007D0B23005A0B2100390B2100DB
:1011B000180B2000F80A1F00D90A1E00BB0A1E00E7
:1011C0009D0A1D00800A1D00630A1C00470A1B00BF
:1011D0002C0A1B00110A1A00F7091A00DD09190070
:1011E000C4091900AB091900920917007B091800FE
:1011F000630917004C09160036091600200916006D
:101200000A091500F5081500E0081400CC081400C0
:10121000B8081400A4081400900813007D081200F8
:101220006B08130058081200460812003408110019
:10123000230811001208110001081100F007100026
:10124000E0071000D0071000C0071000B0070F0023
:10125000A107100091070E0083070F0074070F000D
:1012600065070E0057070E0049070E003B070D00EB
:101270002E070E0020070D0013070D0006070D00B6
:10128000F9060C00ED060D00E0060C00D4060C007B
:10129000C8060C00BC060C00B0060C00A4060B002F
:1012A00099060C008D060B0082060B0077060B00DA
:1012B0006C060B0061060A0057060B004C060A007C
:1012C00042060A0038060A002E060A0024060A0012
:1012D0001A060A001006090007060A00FD050900A3
:1012E000F4050900EB050900E2050900D90509002C
:1012F000D0050900C7050900BE050900B5050800AD
:10130000AD050800A50509009C0508009405080026
:101310008C050800840508007C0508007405080099
:101320006C050700650508005D0507005605080007
:101330004E0507004705070040050800380507006F
:10134000310507002A050700230507001C050600D4
:10135000160507000F05070008050600020507002F
:10136000FB040600F5040700EE040600E80406008E
:10137000E2040700DB040600D5040600CF040600E3
:10138000C9040600C3040600BD040600B704060035
:10139000B1040500AC040600A6040600A004050084
:1013A0009B04060095040500900406008A040500CD
:1013B00085040500800406007A0405007504050014
:1013C000700405006B040500660405006104050057
:1013D0005C04050057040500520405004D04050097
:1013E00048040500430405003E0404003A040500D7
:1013F00035040500300404002C0405002704040013
:10140000230405001E0404001A0404001604050049
:10141000110404000D040400090405000404040080
:1014200000040400FC030400F8030400F4030400B7
:10143000F0030400EC030400E8030400E4030400E8
:10144000E0030400DC030400D8030400D403040018
:10145000D0030400CC030400C8030300C503030049
:1014600024F404D9201BC40C5C0E9804C4095F0248
:1014700065077101F405F900FB04B3004804870017
:10148000C10369005803550003034500BE023A003A
:101490008402310053022A002902250004022000A0
:1014A000E4011C00C8011900AF01170098011400E5
:1014B00084011300710110006101100051010E0040
:1014C00043010D0036010B002B010B0020010B0026
:1014D000150109000C01090003010800FB000800C8
:1014E000F3000800EB000700E4000600DE00060041
:1014F000D8000600D2000600CC000500C700050099
:10150000C2000500BD000400B9000400B5000400DD
:10151000B1000400AD000400A9000400A500030010
:10152000A20003009F0004009B000300980003003A
:101530009500020093000300900003008D0002005C
:101540008B00030088000200860002008400030074
:10155000810002007F0002007D0002007B0002008B
:10156000790002007700010076000200740002009A
:1015700072000100710002006F0002006D000100A6
:101580006C0002006A0001006900020067000100AF
:1015900066000100650001006400020062000100B5
:1015A00061000100600001005F0002005D000100B9
:1015B0005C0001005B0001005A00010059000100BD
:1015C00058000100570001005600010055000100BD
:1015D00054000100530000005300010052000100BC
:1015E00051000100500001004F0001004E000000BA
:1015F0004E0001004D0001004C0001004B000000B6
:101600004B0001004A0001004900010048000000B1
:1016100048000100470001004600000046000100AC
:1016200045000000450001004400010043000000A7
:1016300043000100420000004200010041000000A0
:1016400041000100400001003F0000003F00010098
:101650003E0000003E0001003D0000003D00010092
:101660003C0000003C0000003C0001003B0000008A
:101670003B0001003A0000003A0001003900000080
:101680003900010038000000380000003800010077
:10169000370000003700010036000000360000006F
:1016A0003600010035000000350000003500010063
:1016B000340000003400000034000100330000005A
:1016C000330000003300010032000000320000004F
:1016D0003200010031000000310000003100010043
:1016E0003000000030000000300001002F0000003A
:1016F0002F0000002F0000002F0001002E0000002E
:101700002E0000002E0001002D0000002D00000022
:101710002D0000002D0001002C0000002C00000016
:101720002C0000002C0001002B0000002B0000000A
:101730002B0000002B0001002A0000002A000000FE
:101740002A0000002A0001002900000029000000F2
:1017500029000000290000002900010028000000E5
:1017600028000000280000002800000028000100D8
:1017700027000000270000002700000027000000CD
:1017800027000100260000002600000026000000BF
:1017900026000000260001002500000025000000B2
:1017A00025000000250000002500000025000100A4
:1017B0002400000024000000240000002400000099
:1017C000240001002300000023000000230000008B
:1017D000230000002300000023000000230001007C
:1017E0002200000022000000220000002200000071
:1017F0002200000022000100210000002100000062
:101800002100000021000000210000002100000054
:101810002100010020000000200000002000000046
:101820002000000020000000200000002000000038
:10183000200001001F0000001F0000001F0000002A
:101840001F0000001F0000001F0000001F0001001B
:101850001E0000001E0000001E0000001E00000010
:101860004D383420582059205A2045002CFFFFFFC6
:10187000FF00010101016265640A002C2073797385
:1018800074656D2073746F707065642120486561A4
:101890007465725F49443A200048656174696E67F7
:1018A000206661696C65640048656174696E6720D3
:1018B0006661696C65640020746F6F206C6F6E6781
:1018C00020657874727573696F6E207072657665C5
:1018D0006E7465640A0020636F6C642065787472AE
:1018E0007573696F6E2070726576656E7465640AD3
:1018F00000627573793A2070617573656420666F54
:101900007220696E7075740A00627573793A20707E
:10191000617573656420666F7220757365720A0065
:10192000627573793A2070726F63657373696E675D
:101930000A004B494C4C45442E20004B494C4C204E
:10194000636175736564206279204B494C4C206259
:101950007574746F6E2F70696E0A004B494C4C455C
:10196000442E20004B494C4C206361757365642004
:10197000627920746F6F206D75636820696E616392
:10198000746976652074696D65202D2063757272A7
:10199000656E7420636F6D6D616E643A2000506CEB
:1019A00065617365207265736574005052494E54C9
:1019B00045522048414C544544005072696E74654C
:1019C000722068616C7465642E206B696C6C2829C8
:1019D0002063616C6C6564210A00000048420000CD
:1019E000484200004842000000005761726E696E74
:1019F000673A20486F6D696E672042756D702044AC
:101A0000697669736F72203C20310A000A0A0A0065
:101A100000A0400000A0400000A04000006843007B
:101A20000068439A999343010101496E69746961A1
:101A30006C697A6520454550524F4D00436F6E7476
:101A4000726F6C00526573746F7265206661696CA9
:101A500073616665004C6F61642073657474696EB0
:101A6000677300496E697469616C697A65204545E0
:101A700050524F4D0053746F7265207365747469D2
:101A80006E67730046696C616D656E74004D6F74AE
:101A9000696F6E0054656D70657261747572650072
:101AA0004D61696E004D3330332055312045256935
:101AB0002053256900507265686561742041425366
:101AC00020636F6E66005072656865617420504CCB
:101AD0004120636F6E6600504944204175746F74F5
:101AE000756E6500504944204175746F74756E655C
:101AF000005049442D44005049442D44005049446D
:101B00002D49005049442D49005049442D50005062
:101B100049442D50002002204661637400200220B9
:101B200046616374002002204D6178002002204D40
:101B30006178002002204D6178002002204D696EFE
:101B4000002002204D696E002002204D696E004F7A
:101B50006666004F6E20004175746F74656D70008D
:101B600046616E2073706565640046616E20737017
:101B70006565640042656400426564004E6F7A7A70
:101B80006C65004E6F7A7A6C6500436F6E74726F8D
:101B90006C0053746F72652073657474696E67733B
:101BA0000042656400426564004E6F7A7A6C65009D
:101BB0004E6F7A7A6C650046616E2073706565645D
:101BC0000046616E2073706565640054656D7065D4
:101BD00072617475726500000020002300260029E0
:101BE000002C002F00320000010000030106010953
:101BF0000105050505070508080808020202020A92
:101C00000A0808040404040101010101010101039F
:101C100003030303030303040707070C0C0C0C0C5A
:101C20000C0C0C0202020206060606060606060B4D
:101C30000B0B0B0B0B0B0B010210202008081020C4
:101C40004010204080020102010804020101020448
:101C50000810204080804020100804020180040207
:101C6000018040201008040201080402010102045E
:101C70000810204080010204081020408000000A63
:101C80000B02090C0D0E0807030401000000000000
:101C90000000000000000000000000000000000044
:101CA0000000000000000000001211100000000001
:101CB0000000000000000000000000000000000024
:101CC0000000004B494C4C45442E2000202D20495B
:101CD0006E76616C696420657874727564657220D3
:101CE0006E756D62657220210A002D2D2D2D2D2D12
:101CF000007C4D61726C696E7C002D2D2D2D2D2D7B
:101D00000057656C636F6D6520746F20416E796359
:101D1000756269632E0057656C636F6D6520746F23
:101D200020416E7963756269632E0020312E312E59
:101D300038002020506C616E6E6572427566666573
:101D40007242797465733A20002046726565204DB1
:101D5000656D6F72793A2000436F6D70696C6564D0
:101D60003A204A756C20323120323031380A002056
:101D70007C20417574686F723A20286E6F6E652CF6
:101D80002064656661756C7420636F6E666967298F
:101D90000A00323031372D31322D32352031323A8E
:101DA000303000204C617374205570646174656438
:101DB0003A2000312E312E380A004D61726C696E66
:101DC0000020536F66747761726520526573657485
:101DD0000A00205761746368646F672052657365F9
:101DE000740A002042726F776E206F7574205265FE
:101DF0007365740A002045787465726E616C2052B8
:101E0000657365740A00506F77657255700A0073C8
:101E1000746172740A006572726F722077726974ED
:101E2000696E6720746F2066696C650A00456E6490
:101E300073746F707320256320256320256320252C
:101E40006300205A3A0020593A0020583A00656E43
:101E50006473746F7073206869743A2000446F6E05
:101E60006520736176696E672066696C652E0A006D
:101E70004D323900205A3A0020593A0020436F75FC
:101E80006E7420583A0020453A00205A3A002059F2
:101E90003A00583A003A004361703A00536574744E
:101EA000696E672054726176656C20416363656C6E
:101EB00065726174696F6E3A200053657474696E5F
:101EC00067205265747261637420416363656C6559
:101ED000726174696F6E3A200053657474696E673D
:101EE000205072696E7420416363656C6572617421
:101EF000696F6E3A200053657474696E6720507282
:101F0000696E7420616E642054726176656C204144
:101F10006363656C65726174696F6E3A2000205A64
:101F200000205900580020204D61783A2000205AA6
:101F300000205900580020204D696E3A20004F665D
:101F40006600536F667420656E6473746F70733AC5
:101F5000200020643A0020693A0020703A0053447F
:101F60002063617264206F6B0A006F70656E526F40
:101F70006F74206661696C65640A00766F6C756DBC
:101F8000652E696E6974206661696C65640A005328
:101F90004420696E6974206661696C0A0061757419
:101FA0006F25692E67004D3234004D323320257382
:101FB0000057726974696E6720746F2066696C657A
:101FC0003A20006F70656E206661696C65642C2034
:101FD00046696C653A20006F70656E206661696CB9
:101FE00065642C2046696C653A200046696C652062
:101FF00073656C65637465640A002053697A653A99
:10200000200046696C65206F70656E65643A20003B
:102010006F70656E206661696C65642C2046696C22
:10202000653A20002066696C653A2000646F696E2D
:1020300067006672657368004E6F772000454E44F6
:1020400020535542524F5554494E450A00222070A4
:102050006F73002220706172656E743A22005355CE
:1020600042524F5554494E452043414C4C207461D7
:10207000726765743A22004B494C4C45442E20004F
:10208000747279696E6720746F2063616C6C207361
:1020900075622D67636F64652066696C6573207770
:1020A00069746820746F6F206D616E79206C65763D
:1020B000656C732E204D4158206C6576656C2069E7
:1020C000733A004572726F723A004D3630302048D4
:1020D0006F74656E6420746F6F20636F6C6420741E
:1020E0006F206368616E67652066696C616D656EFF
:1020F000740A0000002110422063308440A550C6BD
:1021000060E770088129914AA16BB18CC1ADD1CE35
:10211000E1EFF13112100273325222B5529442F7BC
:1021200072D662399318837BB35AA3BDD39CC3FF85
:10213000F3DEE36224433420040114E664C774A48C
:102140004485546AA54BB528850995EEE5CFF5ACD5
:10215000C58DD55336722611163006D776F666959C
:1021600056B4465BB77AA719973887DFF7FEE79D25
:10217000D7BCC7C448E5588668A7784008611802EC
:10218000282338CCC9EDD98EE9AFF9488969990A75
:10219000A92BB9F55AD44AB77A966A711A500A33FC
:1021A0003A122AFDDBDCCBBFFB9EEB799B588B3BC5
:1021B000BB1AABA66C877CE44CC55C222C033C604C
:1021C0000C411CAEED8FFDECCDCDDD2AAD0BBD6815
:1021D0008D499D977EB66ED55EF44E133E322E51DC
:1021E0001E700E9FFFBEEFDDDFFCCF1BBF3AAF5965
:1021F0009F788F8891A981CAB1EBA10CD12DC14ED6
:10220000F16FE18010A100C230E320045025404668
:10221000706760B9839893FBA3DAB33DC31CD37F87
:10222000E35EF3B1029012F322D2323542145277B8
:10223000625672EAB5CBA5A89589856EF54FE52C57
:10224000D50DC5E234C324A0148104667447642408
:10225000540544DBA7FAB79987B8975FE77EF71D67
:10226000C73CD7D326F2369106B016576676761558
:102270004634564CD96DC90EF92FE9C899E9898AB7
:10228000B9ABA94458654806782768C018E10882A8
:1022900038A3287DCB5CDB3FEB1EFBF98BD89BBBC7
:1022A000AB9ABB754A545A376A167AF10AD01AB3F8
:1022B0002A923A2EFD0FED6CDD4DCDAABD8BADE817
:1022C0009DC98D267C076C645C454CA23C832CE048
:1022D0001CC10C1FEF3EFF5DCF7CDF9BAFBABFD9A7
:1022E0008FF89F176E367E554E745E932EB23ED198
:1022F0000EF01E7C3C3E5E2B3D3F2F5B5D3B2C2A4F
:10230000225C0020204E6F7A7A6C653A2000426190
:10231000636B004D696E696D756D2054656D70203D
:102320006973203137302E0048656174696E67200B
:102330006661696C65640045787472756465206DCA
:102340006F726500526573756D65207072696E7489
:1023500000524553554D45204F5054494F4E533A26
:102360000020204E6F7A7A6C653A20006368616EB7
:102370006765006F66207468652066696C616D65CD
:102380006E74005761697420666F72207374617295
:1023900074005052494E542050415553454400203A
:1023A000204E6F7A7A6C653A200066696C616D65C3
:1023B0006E7420756E6C6F6164005761697420667D
:1023C0006F72005052494E542050415553454400BD
:1023D00020204E6F7A7A6C653A2000506C656173EC
:1023E0006520776169742E2E2E0048656174696ED0
:1023F00067206E6F7A7A6C65005052494E542050B7
:1024000041555345440020204E6F7A7A6C653A203E
:102410000068656174206E6F7A7A6C652E00507268
:1024200065737320627574746F6E20746F00505200
:10243000494E54205041555345440020204E6F7A58
:102440007A6C653A2000746F20636F6E74696E75E4
:10245000652E2E2E00616E6420707265737320628B
:102460007574746F6E00496E736572742066696C62
:10247000616D656E74005052494E54205041555361
:1024800045440020204E6F7A7A6C653A20006669D8
:102490006C616D656E74206C6F6164005761697466
:1024A00020666F72005052494E542050415553459A
:1024B000440020204E6F7A7A6C653A200066696C81
:1024C000616D656E7420657874727564650057611E
:1024D000697420666F72005052494E542050415525
:1024E00053454400746F20726573756D65005761C4
:1024F000697420666F72207072696E740050524960
:102500004E54205041555345440056652D6A65721E
:102510006B0056652D6A65726B0056652D6A657293
:102520006B00567A2D6A65726B00567A2D6A657259
:102530006B00567A2D6A65726B0056792D6A65724A
:102540006B0056792D6A65726B0056792D6A65723B
:102550006B0056782D6A65726B0056782D6A65722D
:102560006B0056782D6A65726B004D6F74696F6EE3
:10257000004573746570732F6D6D004573746570DD
:10258000732F6D6D005A73746570732F6D6D005AE3
:1025900073746570732F6D6D005973746570732F4C
:1025A0006D6D005973746570732F6D6D0058737481
:1025B0006570732F6D6D005873746570732F6D6D3A
:1025C000004D6F74696F6E0053746570732F6D6D7D
:1025D000004A65726B00416363656C657261746982
:1025E0006F6E0056656C6F63697479005A204F6690
:1025F00066736574005A204F666673657400436F96
:102600006E74726F6C0046696C2E204469612E00F6
:1026100046696C2E204469612E004F6666004F6E3D
:1026200020004520696E206D6D3300436F6E74721B
:102630006F6C0043616E6E6F7420656E74657220FE
:102640007375626469723A2000052E2E004D61692F
:102650006E005072696E7420706175736564004D10
:1026600031323500004D3234005072696E74206191
:10267000626F72746564005072696E742066726F66
:102680006D2053440053746F70207072696E740033
:10269000526573756D65207072696E74004E6F209F
:1026A00053442063617264005061757365207072D9
:1026B000696E7400436F6E74726F6C005072657057
:1026C0006172650054756E6500496E666F207363B4
:1026D0007265656E004D36303020423000436861CF
:1026E0006E67652066696C616D656E7400466C6F1F
:1026F0007700466C6F770046616E20737065656485
:102700000046616E20737065656400426564004236
:102710006564004E6F7A7A6C65004E6F7A7A6C65EC
:10272000005370656564005370656564004D6169B0
:102730006E005072656865617420504C4120456E92
:1027400064005072656865617420504C4120426598
:1027500064005072656865617420504C410050728D
:1027600065706172650050726568656174204142F0
:102770005320456E64005072656865617420414263
:10278000532042656400507265686561742041425F
:102790005300507265706172650043616E6E6F74B4
:1027A000206F70656E207375626469722000656EBB
:1027B0007175657565696E672022006563686F3A9B
:1027C00000544845524D414C2052554E41574159B5
:1027D00000546865726D616C2052756E6177617925
:1027E0000020706F736974696F6E206F7574206F4D
:1027F000662072616E67652E0A003F50726F6265D7
:102800002000202844525952554E29004732392081
:102810004175746F20426564204C6576656C696E05
:10282000670028422961636B00284629726F6E7425
:10283000002852296967687400284C29656674006D
:102840003F2856296572626F7365206C6576656CEA
:1028500020697320696D706C61757369626C6520A5
:1028600028302D34292E0A00426164205A207661D6
:102870006C75650A004E6F2062696C696E656172E5
:1028800020677269640A0020200020205261646978
:1028900075733A00547A005479005478002020521D
:1028A00061646975733A00457A004579004578009E
:1028B0002E4865696768743A007879007A780079FB
:1028C0007A00207A0020790020780063002E2020F2
:1028D00020200020204D383531205A005A2D5072CA
:1028E0006F6265204F666673657420286D6D293AA6
:1028F0000A0020440020490020204D33303420506D
:102900000020440020490020204D33303120500069
:102910005049442073657474696E67733A0A0020E5
:10292000460020420020480020204D3134352053FD
:10293000004D6174657269616C20686561747570C1
:1029400020706172616D65746572733A0A00205A75
:102950000020590020580020420020530020480049
:1029600020520020204D363635204C0044656C74D2
:10297000612073657474696E67733A204C3C6469B6
:1029800061676F6E616C5F726F643E20523C726172
:10299000646975733E20483C6865696768743E20C9
:1029A000533C7365676D656E74735F7065725F73BA
:1029B0003E20423C63616C6962726174696F6E2093
:1029C0007261646975733E2058595A3C746F77651B
:1029D0007220616E676C6520636F727265637469E3
:1029E0006F6E733E0A00205A0020590020204D3699
:1029F0003636205800456E6473746F702061646AC7
:102A00007573746D656E743A0A00205A0020204D6B
:102A10003432302053004175746F20426564204C7D
:102A20006576656C696E673A0A00204500205A0099
:102A300020590020580020420020540020204D3210
:102A40003035205300416476616E6365643A2053EB
:102A50003C6D696E5F66656564726174653E2054A5
:102A60003C6D696E5F74726176656C5F6665656406
:102A7000726174653E20423C6D696E5F7365676D7F
:102A8000656E745F74696D655F75733E20583C6D4B
:102A900061785F78795F6A65726B3E205A3C6D6140
:102AA000785F7A5F6A65726B3E20453C6D61785F46
:102AB000655F6A65726B3E0A002054002052002058
:102AC000204D323034205000416363656C65726183
:102AD00074696F6E2028756E6974732F7332293A8A
:102AE00020503C7072696E745F616363656C3E2058
:102AF000523C726574726163745F616363656C3EBE
:102B000020543C74726176656C5F616363656C3EF2
:102B10000A00204500205A0020590020204D323064
:102B2000312058004D6178696D756D204163636592
:102B30006C65726174696F6E2028756E6974732F8D
:102B40007332293A0A00204500205A0020590020FB
:102B5000204D3230332058004D6178696D756D20FD
:102B60006665656472617465732028756E69747337
:102B70002F73293A0A00204500205A0020590020CE
:102B8000204D39322058005374657073207065727F
:102B900020756E69743A0A0020204D32303020448E
:102BA000300A0020204D3230302044002044697328
:102BB00061626C65640A0046696C616D656E7420C3
:102BC00073657474696E67733A0020204D3134392F
:102BD0002043203B20556E69747320696E20436545
:102BE0006C736975730A0020204732312020202041
:102BF0003B20556E69747320696E206D6D0A004C20
:102C00006F61642073657474696E67730044656CEA
:102C100074612053657474696E67730053746F72C6
:102C2000652073657474696E67730053657420441E
:102C3000656C7461204865696768740047333320A8
:102C40005031004175746F2043616C696272617428
:102C5000696F6E00473333004D61696E004D6F76CA
:102C6000652058004D6F76652059004D6F766520C0
:102C70005A004578747275646572004D6F766520F0
:102C8000302E316D6D004D6F766520316D6D004DCC
:102C90006F76652031306D6D004D6F7665206178FF
:102CA0006973004578747275646572004D6F76655E
:102CB000205A004D6F76652059004D6F766520587B
:102CC000004D6F76696E672E2E2E004578747275F2
:102CD000646572004175746F20686F6D65004732DE
:102CE00038004D6F7665205A004672656520585948
:102CF000004D6F76652059004D6F76652058005065
:102D00007265706172650053776974636820706FD3
:102D1000776572206F6E004D3830005377697463A9
:102D20006820706F776572206F6666004D383100DD
:102D30005072656865617420414253005072656845
:102D400065617420504C4100436F6F6C646F776E07
:102D50000044656C74612043616C696272617469DE
:102D60006F6E004368616E67652066696C616D65B2
:102D70006E740044697361626C6520737465707071
:102D8000657273004D383400426564204C65766589
:102D90006C696E67004732380A47323900417574F2
:102DA0006F20686F6D6500473238004D6F76652083
:102DB00061786973004D61696E00547A00547A003D
:102DC0005479005479005478005478005261646951
:102DD00075730052616469757300457A00457A0025
:102DE0004579004579004578004578004865696770
:102DF00068740048656967687400446961672052B7
:102E00006F64004469616720526F640044656C74AC
:102E1000612043616C6962726174696F6E00436125
:102E200072642072656D6F76656400436172642020
:102E3000696E7365727465640025753A2530327564
:102E400000253032753A25303275002D2D2D005376
:102E500044005A00590058004C696E65204E756D4B
:102E6000626572206973206E6F74204C61737420E8
:102E70004C696E65204E756D6265722B312C204C4D
:102E8000617374204C696E653A20004B494C4C4587
:102E9000442E200053544F505045442E2000507271
:102EA000696E7465722073746F70706564206475E8
:102EB0006520746F206572726F72732E2046697878
:102EC00020746865206572726F7220616E6420756F
:102ED0007365204D39393920746F207265737461C0
:102EE00072742E202854656D7065726174757265F8
:102EF0002069732072657365742E20536574206990
:102F0000742061667465722072657374617274698D
:102F10006E67290A004E6F20436865636B73756D99
:102F20002077697468206C696E65206E756D6265C6
:102F3000722C204C617374204C696E653A200063DA
:102F40006865636B73756D206D69736D617463681B
:102F50002C204C617374204C696E653A20004D3111
:102F60003130004D33310053442072656164206577
:102F700072726F720A00446F6E65207072696E74AF
:102F8000696E672066696C650A0020496E76616C1F
:102F9000696420657874727564657220000000E8C9
:102FA000C20000E8C2000000000000E8420000E8A3
:102FB000429A99934300002100240027002A002D03
:102FC000003000330001010000040107010A010084
:102FD000002200250028002B002E003100340002C2
:102FE000010000050108010B011000C90210012CAD
:102FF000014001220170011801B0010E01F001042D
:10300000015002FA00B002F0003003E600D003DC09
:10301000009004D2007005C800A006BE000008B4ED
:1030200000B009AA00D00BA000600E960060118CC1
:10303000000015820020197800C01D6E00A02264D7
:1030400000B0275A00902C500000314600E0343C7C
:103050000010383200903A2800603C1E00A03D1459
:1030600000803E0A00203F00004572723A204D4920
:103070004E54454D5020424544004572723A204D11
:10308000494E54454D50004D494E54454D502074C5
:103090007269676765726564004572723A204D41D6
:1030A0005854454D5020424544004572723A204DD7
:1030B000415854454D50004D415854454D50207491
:1030C000726967676572656400202F002042403A8C
:1030D0000020403A0000000000010204040000004B
:1030E0001C1C0C0404040201000000000004081071
:1030F0000000000000001C1F11111F000000061935
:103100001803130C00040E1F041C000000000E1313
:1031100015110E00001C10181705060500040A0AF8
:103120000A0A11110E0C12120C00000000001F15EB
:1031300011151F0000202863616C63756C61746554
:103140006429210A0020213D2000454550524F4D61
:1031500020435243206D69736D61746368202D2094
:103160002873746F726564292000290A002062792F
:103170007465733B2063726320002073746F726503
:10318000642073657474696E677320726574726904
:1031900065766564202800204D61726C696E3D562D
:1031A0003437290A0028454550524F4D3D004545CA
:1031B00050524F4D2076657273696F6E206D697342
:1031C0006D61746368200048617264636F64656454
:1031D0002044656661756C742053657474696E670C
:1031E00073204C6F616465640A00B80B0000B80B73
:1031F0000000B80B0000B80B0000000048430000BE
:10320000484300004843000048420000A04200003C
:10321000A0420000A0420000C042565472617620D5
:103220006D696E005654726176206D696E00565459
:10323000726176206D696E00566D696E00566D691B
:103240006E00566D696E00566D6178204500566DB2
:103250006178204500566D6178204500566D617893
:10326000205A00566D6178205A00566D6178205AB8
:1032700000566D6178205900566D617820590056CE
:103280006D6178205900566D6178205800566D6147
:1032900078205800566D61782058004D6F74696F22
:1032A0006E00416D6178204500416D6178204500D8
:1032B000416D6178205A00416D6178205A00416D5E
:1032C0006178205900416D6178205900416D617825
:1032D000205800416D6178205800412D747261764C
:1032E000656C00412D74726176656C00412D7265CC
:1032F000747261637400412D72657472616374004D
:10330000416363656C00416363656C004D6F746974
:103310006F6E00526573656E643A20006F6B004DEE
:1033200031343520533C696E6465783E206F757486
:10333000206F662072616E67652028302D31290A62
:103340000000FE00020111241FBECFEFD1E2DEBF5C
:10335000CDBF00E00CBF13E0A0E0B2E0EAE1F8E886
:1033600002E00BBF02C007900D92A23DB107D9F752
:1033700025E1A2EDB3E001C01D92A03CB207E1F748
:1033800019E1C2EAD9E100E006C021970109802FC6
:10339000FE010F947143C13AD10780E00807A9F7F5
:1033A0000F94C62B0D94FC430C9400002F923F9277
:1033B0004F925F926F927F928F929F92AF92BF9245
:1033C000CF92DF92EF92FF920F931F93CF93DF93F1
:1033D000CDB7DEB7CF57D1090FB6F894DEBF0FBE19
:1033E000CDBF81E090E090936B0E80936A0E809148
:1033F00004158D3409F49FC2843511F40C94C82E41
:10340000873411F00C94032F20910215309103158D
:103410002C31310509F4ECC0BCF42430310544F4FE
:10342000223031050CF05DC037FF33C00C941A2FE9
:103430002A31310509F4A5C00CF0A7C024303105AC
:1034400009F458C00C941A2F2A32310509F4C4C16A
:103450007CF42E31310509F4E6C00CF4E0C02132D1
:10346000310511F00C941A2F0E94D4440C941A2F99
:103470002B35310509F431C12C35310509F432C140
:103480002A35310511F00C941A2F1092D7030C94A1
:103490001A2F80910902882311F40C941A2F8AE5BF
:1034A0000E94A637482F89E5C158DF4F4883CF5780
:1034B000D0400E94A637682F88E5EF966FAFEF9750
:1034C0000E94A637C158DF4F4881CF57D040EF96B2
:1034D0006FADEF970E94757A81110C941A2F0C949E
:1034E000212F81E02230310509F080E00E94217B0C
:1034F0000C941A2F80E50E94D537882329F00E946A
:10350000BF346B017C0103C0C12CD12C760183E553
:103510000E94D537882361F00E94733720E030E0A5
:103520004AE754E40F94233C0F9471416B017C01F2
:103530000E94968580914402811105C060E08DE96A
:1035400092E00E9467F20E94FF358091DB09909122
:10355000DC09A091DD09B091DE09C80ED91EEA1E72
:10356000FB1E0F94C003DC01CB018C199D09AE0931
:10357000BF09B7FD02C00C941A2F80E00E940C8E88
:10358000F0CF0E9432390C941A2F41E061E081E0C3
:103590000E94757A81110C941A2F80E090E0A4EDBE
:1035A000B2EC89839A83AB83BC8380E090E0A4ED86
:1035B000B2E48D839E83AF83B88780E090E0A0EF74
:1035C000B1E489879A87AB87BC8780E50E94D537AD
:1035D000882319F00E94433701C060E068A3BE0150
:1035E0006F5F7F4FCE0180960F9488240C941A2F22
:1035F0000E94968580E00E9419770E944CFB81E032
:103600008093F60E0E944B740E9495350E9432FB07
:1036100083E080939A020E949CA70C941A2F0E9428
:103620006BD80C941A2FC090390CD0903A0CE090C3
:103630003B0CF0903C0C88E50E94D537811108C006
:1036400020E030E0A901C701B6010F94284002C074
:103650000E94733768A379A38AA39BA3C0903D0CF3
:10366000D0903E0CE0903F0CF090400C89E50E9419
:10367000D537811108C020E030E0A901C701B601AB
:103680000F94284002C00E9473376B017C0169834C
:103690007A838B839C8368A179A18AA19BA19B01DA
:1036A000AC010F94233C4B015C01A7019601C701BB
:1036B000B6010F94233C9B01AC01C501B4010F94EA
:1036C000284020E030E442E556E40F94BE3B181653
:1036D00014F40C941A2F0C94262F81E08093D703B6
:1036E0000C941A2F0E949685FDEA2F2EF2E03F2EB1
:1036F000A8E4EA2EA2E1FA2EB9E3CB2EBCE0DB2E41
:1037000000E010E01FAED1018D911D010E94D53760
:10371000882309F44DC00E9473374B015C010330CC
:10372000110549F0F70120813181428153810F94C5
:1037300027404B015C01D6012D913D914D915C914B
:10374000C501B4010F9427402B013C012DEB37E359
:1037500046E855EB0F949C4287FD0AC02DEB37E3FA
:1037600046E855E3C301B2010F94BE3B181604F5B9
:103770000330110559F48092450C9092460CA092AA
:10378000470CB092480CB1E0BFAF12C0A301920148
:10379000F70160817181828193810F942840D70164
:1037A0006D937D938D939C931397C8010E94F8FCB1
:1037B0000F5F1F4FB4E0EB0EF11CE4E0CE0ED11C06
:1037C0000430110509F09FCFFFADF1110E948EAFBB
:1037D0000E949CA70C941A2F41E061E081E00E94B6
:1037E000757A81110C941A2F80910902882311F4A3
:1037F0000C941A2F89E40E94D537082F882321F0D2
:103800000E944337E62E01C0E12C8AE40E94D5379E
:10381000F82E882331F00E944337162F011104C07F
:103820000BC010E00023B9F028E02E1510F00C9426
:103830001934E8EBF2E003C01930D8F70CC08491DA
:103840008F010F5F1F4F882311F40C941A2F0E94D1
:103850000A36F801F4CF0E94E1370023F1F02091FD
:103860006114309162144E2D4203B001439F700DDC
:10387000112420915D1430915E14620F731F072E86
:10388000000C880B990B0F94C43B6093290C709328
:103890002A0C80932B0C90932C0CFF20E9F02091A4
:1038A0006314309164141203B001139F700D11243E
:1038B00080915F1490916014680F791F072E000C9F
:1038C000880B990B0F94C43B60932D0C70932E0CB6
:1038D00080932F0C9093300C80E50E94D53788237D
:1038E00019F00E94643703C080E50E94A63786E481
:1038F0000E94D5378823D9F00E9473376B017C0171
:1039000020E030E0A9010F949C42181684F420E0D6
:1039100030E040E752E4C701B6010F9404416093E0
:103920008E0270938F0280939002909391020E9476
:1039300028920C941A2F80910215909103158337C9
:10394000910511F40C9490260CF0E4C08C34910590
:1039500009F46DC50CF054C08931910509F418C300
:1039600024F58431910509F48FC284F481319105E5
:1039700009F478C22CF4029708F4E8C10C941A2FC9
:10398000429711F40C94BD250C941A2F86319105A1
:1039900009F4C3C20CF4BDC28731910509F4C3C256
:1039A000489709F4D6C20C941A2F8F31910509F467
:1039B000ADC47CF48B31910509F408C30CF4F8C252
:1039C0008C31910509F43EC34E9709F445C30C941C
:1039D0001A2F8A32910509F4C5C42CF4809709F492
:1039E00049C40C941A2F8133910509F4FBC48B341C
:1039F000910511F00C941A2F0F946C150C941A2F3A
:103A00008836910509F42FC60CF04EC08235910519
:103A100011F40C94B4255CF58E34910509F411C5AC
:103A20000CF40BC58035910511F40C948E2581356D
:103A3000910511F00C941A2F0F94A40B0E949685F7
:103A40000E94AC8D10927F1410927E1468EE73E089
:103A500080E090E00F940308269A2E9A10928D022F
:103A600060E08DE095E00E9467F20C941A2F843597
:103A7000910511F40C94BD2514F40C94B8258535EA
:103A8000910511F40C94F4258C35910511F00C94EA
:103A90001A2F2DEAC22E22E0D22E35E1E32E3CE091
:103AA000F32E10E00C940F268D36910509F44AC7C9
:103AB0009CF48A36910509F47FC70CF4FFC68B3657
:103AC000910509F49EC78C36910511F00C941A2FBC
:103AD00010923B020C941A2F8037910509F49EC670
:103AE00054F48E36910509F415C68F36910509F404
:103AF00024C60C941A2F8137910509F497C6823792
:103B0000910511F00C941A2F0E9496850E949CA793
:103B10000C941A2F8D3251E0950711F40C94E22782
:103B20000CF08CC08E3B910509F42AC70CF041C003
:103B30008937910511F40C94A7272CF58637910548
:103B400011F40C94E42674F48537910511F00C946B
:103B50001A2F60E080910015909101150E9485F266
:103B60000C941A2F8737910511F40C94232788376A
:103B7000910511F00C941A2F81E08093F60E80933A
:103B8000F50E0C941A2F8C38910509F47BC634F489
:103B90008D37910509F447C70C941A2F8139910587
:103BA00011F40C94AC278B39910509F4A4C60C943C
:103BB0001A2F8D3C910511F40C94B527ECF4893C37
:103BC000910511F40C94AF274CF4883C910511F049
:103BD0000C941A2F0E940FA70C941A2F8B3C91055E
:103BE00011F40C94B2278C3C910511F00C941A2F0F
:103BF0000E945FA60C941A2F8D3D910511F40C9430
:103C0000DC2774F4833D910511F40C94D9278C3D85
:103C1000910511F00C941A2F0E94A1A40C941A2F54
:103C2000823E910511F40C94DF278C32914011F003
:103C30000C941A2F0E94C8A30C941A2F853AE1E025
:103C40009E0711F40C949B2DA4F5803921E0920776
:103C500011F40C94C52CC4F48F3241E0940711F494
:103C60000C94B62814F40C9462288033A1E09A07CF
:103C700011F40C94E5278336914011F00C941A2F1F
:103C8000E3ECF0E20C949E2E8239E1E09E0711F401
:103C90000C94CC2C14F40C94C82C8A3921E0920793
:103CA00009F4C0C5843A914011F40C94D02C0C94C2
:103CB0001A2F883542E0940711F40C949B2EECF4F3
:103CC000853FA1E09A0711F40C94332E4CF4843F05
:103CD000914011F00C941A2F0E945A590C941A2FEB
:103CE000863FF1E09F0711F40C94362E873F9140F8
:103CF00011F40C94392E0C941A2F833533E093076A
:103D000011F40C94452EB4F4893952E0950711F45E
:103D10000C94B8278A39924011F00C941A2F81E044
:103D2000E82E82E1F82E0DEA12E093E0D92ED00EB3
:103D30000C94D127803AB3E09B0709F4DAC2873E9E
:103D4000934011F40C94B32E0C941A2FA0900015EC
:103D5000B090011580E50E94D537882359F00E9464
:103D6000BF346B017C0111E0672B682B692B31F4A8
:103D700010E004C010E0C12CD12C760183E50E9434
:103D8000D5378823F1F00E94733720E030E04AE70E
:103D900054E40F94233C0F9471416B017C01111189
:103DA00012C0672B682B692B71F4A114B10459F070
:103DB000D5018C91882339F061E0C5010E9485F21C
:103DC00007C0112391F360E08DEF92E00E9467F24B
:103DD00083E090E090936B0E80936A0E81E0809375
:103DE0002B120E9496850E94FF35C114D104E10474
:103DF000F104F1F08091DB099091DC09A091DD09DB
:103E0000B091DE09C80ED91EEA1EFB1E0F94C00336
:103E1000DC01CB018C199D09AE09BF09B7FF1EC09B
:103E200080912B128823D1F080E00E940C8EEECF7F
:103E300080912B12882321F080E00E940C8EF8CF15
:103E40008091150F9091160F60E0029719F486EE9D
:103E500092E002C087ED92E00E9467F210922B126E
:103E60000C941A2F60E080E193E00E9467F25F9863
:103E70008A989FB7F894809108018E7F80930801FB
:103E80009FBF12980C941A2FE8E2F3E084918F01FF
:103E90000F5F1F4F882321F00E940A36F801F6CFEA
:103EA0001092C6111092C51140E050E0BA0181E7AE
:103EB0009FE00E94E4608BE1E1E7FFE0DE01159600
:103EC00001900D928A95E1F780916F0F9091700F9C
:103ED0009C838B8383ED92E09A83898340E050E05A
:103EE000BE016F5F7F4F8FEB93E00E94E8D0CE0161
:103EF00001960E94A28DE9E1F3E084918F010F5FAA
:103F00001F4F882311F40C941A2F0E940A36F801CF
:103F1000F4CF0E947BAD0C941A2F1092400F109298
:103F2000410F0C941A2FE0910015F091011580813A
:103F3000882329F0803209F410823196F8CF40E0CE
:103F400061E080910015909101150E9438AA0C94AF
:103F50001A2F19821A821B821C8218A219A21AA275
:103F60001BA28091690E882341F040E0BE016F5F83
:103F70007F4FCE0180960E94FBB58091410F882330
:103F800019F081E08093400F0F946C150C941A2F58
:103F90001092400F85E19FE00E94368589E393E00F
:103FA0009093670E8093660E0E9495FE0C941A2FD4
:103FB0008091410F882311F40C941A2F83E50E94FD
:103FC000D53781110C947D2F0C941A2F8091410FBD
:103FD000882351F1EEE3F3E084918F010F5F1F4FCF
:103FE000882321F00E940A36F801F6CF6091BC11B7
:103FF0007091BD118091BE119091BF114AE00E9455
:1040000011368FE20E940A366091B8117091B91191
:104010008091BA119091BB114AE00E9411368AE05A
:104020000E940A360C941A2FE0E5F3E084918F0188
:104030000F5F1F4F882311F40C941A2F0E940A3629
:10404000F801F4CF40E060E08091001590910115F7
:104050000E9438AA0C941A2F8091410F882311F4E2
:104060000C941A2F8BE091E10E94B2608BE091E1F9
:104070000E941FB010923F0F10923E0FE09000156B
:10408000F09001158091410F882311F40C941A2FA0
:104090000E942EAA1D8218861C821B8283ED92E04C
:1040A0009A8389838DE69FE090938D0F80938C0F88
:1040B000F70180818F3209F068C06FE270E0C701BC
:1040C0000F94B9438C010F5F1F4F9E012F5F3F4F2D
:1040D00049010115110509F45EC06FE270E0C801E5
:1040E0000F94B9436C01009709F456C008171907DB
:1040F00008F052C05C01A01AB10AA501B801CE01B6
:1041000080960F94E243E0E2F0E0EC0FFD1FEA0D31
:10411000FB1D10828E01005E1F4FD8018D918D0115
:10412000882319F00E940A36F8CF8AE00E940A36E6
:1041300060918C0F70918D0F6115710511F06C5F9E
:104140007F4F21E0AE01405E5F4FCE0105960E9499
:1041500063B4811112C0BE01605E7F4F87E893E0B7
:104160000E9453718EE20E940A368AE00E940A364B
:10417000C4010E94A28D0C941A2F90928D0F8092F0
:104180008C0F86010F5F1F4FA4CF8EE89FE09093A6
:104190008D0F80938C0F870160918C0F70918D0F24
:1041A0006115710511F06C5F7F4F18A21BA222E010
:1041B000A801CE0180960E9463B4811102C0F12C47
:1041C00014C0CE0180960E9456D08823C1F361E0CE
:1041D000CE0180960E9428B0009789F325EEFC015D
:1041E00020831BA20E94C35EF82ECE0180960E94FF
:1041F0008F35FF2009F1E1E6F3E084917F012FEF95
:10420000E21AF20A882321F00E940A36F701F5CF5C
:10421000D8018D918D01882319F00E940A36F8CFBC
:104220008AE00E940A361092BC111092BD111092C1
:10423000BE111092BF1118C0EFE6F3E084917F0128
:10424000BFEFEB1AFB0A882321F00E940A36F70120
:10425000F5CFF80181918F01882319F00E940A3669
:10426000F8CF8EE20E940A36CE0101960E94A28DFE
:104270000C941A2F8091400F81110E949685809195
:10428000410F882311F40C941A2F80E50E94D53732
:10429000882319F00E94643703C080E50E94A63786
:1042A000182F482F61E080910015909101150E9410
:1042B00038AA83E50E94D537882381F00E944337CE
:1042C000AB01BC014093BC115093BD116093BE1172
:1042D0007093BF118BE091E10E94E4608091410FE7
:1042E000882319F081E08093400F11110C941A2F4C
:1042F0004BCE809100159091011521E020933F0F46
:1043000040E060E00E9438AA0C941A2F85E19FE0FB
:104310000E94098568A379A38AA39BA3BE016F5F4E
:104320007F4FCE0180960E94CF3460E0CE0101968F
:104330000E9485F2EBEBF7E284918F010F5F1F4F34
:10434000882321F00E940A36F801F6CFBE016F5F84
:104350007F4F8BE993E00E9453718AE00E940A36F6
:104360000C941A2F83E50E94D537882311F40C94FE
:104370001A2F0E945337E82E80E50E94D5378823F4
:1043800041F00E9443378B0177FF02C00C941A2F33
:1043900002C00DE010E0902FE8EAF3E088E28E0F13
:1043A0002491921729F031968E13FACF0C948D2F09
:1043B000E3ECF0E284918F010F5F1F4F882321F01F
:1043C0000E940A36F801F6CFE0EDF3E084918F0108
:1043D0000F5F1F4F882311F40C941A2F0E940A3686
:1043E000F801F4CFF090D20381E0F826F092D203E6
:1043F000EAEEF3E084918F010F5F1F4F882321F0D5
:104400000E940A36F801F6CFF11003C0E4EEF3E0A3
:1044100002C0EFEDF3E084918F010F5F1F4F8823FF
:1044200011F40C941A2F0E940A36F801F4CF85E19A
:104430009FE00E9436850C941A2F0E94A3CD0C9405
:104440001A2F83E50E94D537882359F00E944337FD
:104450006E34710531F485E19FE00E9489710C94FE
:104460001A2F18A219A21AA21BA2E5E5F4E0849162
:104470008F010F5F1F4F882321F00E940A36F80139
:10448000F6CFECE4F4E084918F010F5F1F4F882397
:1044900021F00E940A36F801F6CF6091230F709147
:1044A000240F80E090E04AE00E941136EFE3F4E050
:1044B00084918F010F5F1F4F882321F00E940A36DD
:1044C000F801F6CF6091250F7091260F80E090E003
:1044D0004AE00E941136E4E3F4E084918F010F5F1B
:1044E0001F4F882321F00E940A36F801F6CF609111
:1044F000230F7091240F8091250F9091260F681B38
:10450000790B8091150F9091160F019721E030E003
:10451000029710F020E030E0621B730B80E090E027
:104520004AE00E9411368AE00E940A36ECE2F4E08A
:1045300084918F010F5F1F4F882321F00E940A365C
:10454000F801F6CF8091270F9091280FA091290FA5
:10455000B0912A0F88A399A3AAA3BBA3BE016F5F42
:104560007F4FCE0180960E94CF34EFE1F4E084913A
:104570008F010F5F1F4F811106C09E012F5F3F4FBC
:104580007901890104C00E940A36F801F0CFD801F0
:104590008D918D01882319F00E940A36F8CF809101
:1045A0002B0F90912C0FA0912D0FB0912E0F88A35F
:1045B00099A3AAA3BBA3BE016F5F7F4FCE018096D4
:1045C0000E94CF34EFE0F4E084918F010F5F1F4F22
:1045D000882321F00E940A36F801F6CFF701819175
:1045E0007F01882319F00E940A36F8CF8AE00E94E2
:1045F0000A36E7E0F4E084918F010F5F1F4F8823B4
:1046000021F00E940A36F801F6CFE7EFF3E084913B
:104610008F010F5F1F4F882321F00E940A36F80197
:10462000F6CF20E030E04AE754E460912F0F70911C
:10463000300F8091310F9091320F0F94044142E07E
:104640000E949136E5EFF3E084918F010F5F1F4FD9
:10465000882321F00E940A36F801F6CF8AE00E94F2
:104660000A360C941A2F88E690E00E9437FE8111DA
:104670000C941A2F8091AA0E83FF02C00C941A2F5B
:1046800083E50E94D537882309F440C00E94733720
:104690000F946C4170937D1460937C1480E00F94B0
:1046A0005A0B0E94733720E030E04AEA52E40F943C
:1046B000BE3B18163CF00E94A3CD60E084E694E077
:1046C0000E9467F20E9473372091EC113091ED1136
:1046D0004091EE115091EF110F949C421816B4F4D2
:1046E0008AE493E09F938F938091021390E0019668
:1046F0009F938F938DE594E09F938F931F920F94D8
:1047000045150FB6F894DEBF0FBECDBF0F946029DC
:104710000C941A2F8EE40E94D537882311F40C9440
:104720001A2F0E9443376093570C7093580C809354
:10473000590C90935A0C0C941A2F83E50E94A637BB
:10474000882359F083E50E94D537882319F00E9409
:10475000533701C080E08093AA0EEBEBF7E284911F
:104760008F010F5F1F4F882321F00E940A36F80146
:10477000F6CFE9E8F4E084918F010F5F1F4F8823A3
:1047800021F00E940A36F801F6CF8091AA0E882304
:10479000A1F1EBE7CE2EE4E0DE2EE12CF12C20E0BF
:1047A0008091AA0E90E00E2C02C0959587950A94F0
:1047B000E2F780FF17C0BB24B394B20E222319F096
:1047C0008CE20E940A36F60125913491F901849118
:1047D00089010F5F1F4F882321F00E940A3698013C
:1047E000F5CF2B2DFFEFEF1AFF0A32E0C30ED11CDD
:1047F00045E0E416F104A1F60CC0E5E8F4E084918C
:104800008F010F5F1F4F882321F00E940A36F801A5
:10481000F6CF8AE00E940A360C941A2F80E994E0C1
:104820000E94BC8D0E94EAA20C941A2F83E50E947C
:10483000D537882369F00E9453378D3320F4809355
:104840000A020C941A2F8CE380930A020C941A2FFC
:10485000EBEBF7E284918F010F5F1F4F882321F06C
:104860000E940A36F801F6CF40910A0250E060E05B
:1048700070E089E994E00E94E3708AE00E940A36C1
:104880000C941A2F8091AA0E83FF02C00C941A2F49
:1048900083E50E94D537882311F40C941A2F0E94C7
:1048A00073370F946C416937710514F068E770E055
:1048B00070938114609380140C941A2F89E690E011
:1048C0000E9437FE811111C0E0EAF4E084918F016B
:1048D0000F5F1F4F882321F00E940A36F801F6CFA0
:1048E0000F9453098AE00E940A3610926B0E1092C0
:1048F0006A0E0C941F3483E50E94D537882311F487
:104900000C941A2F0E945337182F8D3308F01CE394
:104910001093D8090F94C0036B017C01212F30E064
:10492000A8EEB3E00F941840C60ED71EE81EF91E7D
:10493000C092D409D092D509E092D609F092D70955
:104940000C941A2F8DE690E00E9437FE81110C9492
:104950001A2F8091AA0E83FF02C00C941A2F83E5B0
:104960000E94D53725968FAF259781110C94A32FE0
:1049700082E50E94D53781110C94A32F0C941A2F35
:104980008091AA0E83FF02C00C941A2F60E08DED77
:1049900094E00E9467F283E50E94D53721968FAF9D
:1049A000219781110C94313182E50E94D537811114
:1049B0000C9431310C941A2F80E50E94D537811167
:1049C00008C083E50E94D537811109C03FEF20E080
:1049D0000AC00E94533781110C941A2FF2CF0E9403
:1049E0004337362F272F832F922F8F3F910519F0B2
:1049F00010F08FEF90E090937F1480937E140C94CE
:104A00001A2F80E50E94D537811106C010927F14BD
:104A100010927E140C941A2F0E944337672B11F0CA
:104A20000C941A2FF3CF8CE40E94A637882319F038
:104A30000E94733704C060E070E080E090EC6BAFE0
:104A40007CAF8DAF9EAF80E090E0A4EDB2EC8983A7
:104A50009A83AB83BC8380E090E0A4EDB2E48D83C5
:104A60009E83AF83B88780E090E0A0EFB1E48987B0
:104A70009A87AB87BC8788E50E94D537882379F071
:104A800088E50E94D537882319F00E94733703C048
:104A900060E070E0CB0169837A838B839C8389E536
:104AA0000E94D537882379F089E50E94D53788237D
:104AB00019F00E94733703C060E070E0CB016D8392
:104AC0007E838F8398878AE50E94D537882379F083
:104AD0008AE50E94D537882319F00E94733703C0F6
:104AE00060E070E0CB0169877A878B879C8718A28A
:104AF00019A21AA21BA28091690E81110C941A2F7F
:104B000000E020E0AE01405E5F4FBE016F5F7F4F6F
:104B1000CE01CB960E940AB70C941A2F83E50E940F
:104B2000A6378823A9F080918D02811103C0E7E0A8
:104B3000F5E002C0E1E0F5E084918F010F5F1F4FC7
:104B4000882311F40C941A2F0E940A36F801F4CF2E
:104B5000269A2E9881E080938D0260E08AEE94E0A0
:104B60000E9467F20C941A2F1092D6030C941A2FFD
:104B700081E08093D6030C941A2F83E50E94D537E9
:104B80008823A1F00E94733720E030E04AE754E424
:104B90000F94233C0F94714160930B0270930C02AD
:104BA00080930D0290930E020C941A2F88E50E94B8
:104BB000A63781110C94463289E50E94A6378111EF
:104BC0000C9446328AE50E94A63781110C94463235
:104BD00085E40E94A63781110C9446320E94968586
:104BE0000E94AC8D0C941A2F83E50E94A63788236F
:104BF00011F40C941A2F0E94733720E030E04AE73A
:104C000054E40F94233C0F9471416093DF09709337
:104C1000E0098093E1099093E2090C941A2FF601C0
:104C200081916F010E94A637882309F46EC013306A
:104C300009F063C00E9473374B015C0120E030E053
:104C400040EA51E40F94BE3B87FF4EC0A50194019A
:104C50006091210C7091220C8091230C9091240C76
:104C60000F9404412B013C019B01AC016091970E14
:104C70007091980E8091990E90919A0E0F94233C0A
:104C80006093970E7093980E8093990E90939A0E5E
:104C9000A30192016091C0147091C1148091C2145B
:104CA0009091C3140F94233C6093C0147093C1146B
:104CB0008093C2149093C31460915C0470915D045E
:104CC00080915E0490915F040F94C23BA301920116
:104CD0000F94233C0F94714160935C0470935D04C6
:104CE00080935E0490935F048092210C9092220C3A
:104CF000A092230CB092240C08C00E947337D701F5
:104D00006D937D938D939C9313971F5FB4E0EB0E8F
:104D1000F11C143009F083CF0E9408720C941A2FF2
:104D2000E9EDF5E084918F010F5F1F4F882321F09B
:104D30000E940A36F801F6CF60E089EC95E00E9407
:104D400058A761E082EC95E00E9458A761E087EBEC
:104D500095E00E9458A761E087EA95E00E9458A775
:104D600060E08EE995E00E9458A761E084E995E053
:104D70000E9458A761E08AE895E00E9458A761E088
:104D800082E895E00E9458A761E084E795E00E94E0
:104D900058A760E086E695E00E9458A761E087E5A5
:104DA00095E00E9458A760E089E495E00E9458A72A
:104DB00060E083E395E00E9458A760E082E295E01E
:104DC0000E9458A70C941A2F85E40E94D537882397
:104DD00019F00E94643703C085E40E94A637882337
:104DE00061F0EBEBF7E284918F010F5F1F4F882397
:104DF00021F00E940A36F801F6CF81E40E94D537EF
:104E0000882319F00E94643703C081E40E94A6370A
:104E1000882361F0E4EAF6E084918F010F5F1F4F71
:104E2000882321F00E940A36F801F6CF0091001580
:104E300010910115F80181918F01882309F4E9CCC3
:104E40000E940A36F7CFE8ECF6E084918F010F5FFD
:104E50001F4F882321F00E940A36F801F6CFE0ECBC
:104E6000F6E084918F010F5F1F4F882321F00E948D
:104E70000A36F801F6CF649903C00BE213E002C0D2
:104E800000E313E0D8018D918D01882319F00E9471
:104E90000A36F8CF8AE00E940A36E8EBF6E0849101
:104EA0008F010F5F1F4F882321F00E940A36F801FF
:104EB000F6CF8091030180FD03C00BE213E002C036
:104EC00000E313E0F80181918F01882319F00E941B
:104ED0000A36F8CF8AE00E940A36E0EBF6E08491C9
:104EE0008F010F5F1F4F882321F00E940A36F801BF
:104EF000F6CF4B9B03C00BE213E002C000E313E0CC
:104F0000D8018D918D01882319F00E940A36F8CFBF
:104F10008AE00E940A36E8EAF6E084918F010F5F8A
:104F20001F4F882321F00E940A36F801F6CF4A99D4
:104F300003C00BE213E002C000E313E0F80181912B
:104F40008F01882309F465CC0E940A36F7CF1092AE
:104F5000F60E1092F50E6EC70F94F5256BC70E94E2
:104F6000EAA668C70E94C8A665C70E94F5A562C7E1
:104F70000E947BA55FC70E94733720E030E0A90143
:104F80000F94BE3B18163CF00E947337F701608304
:104F9000718382839383F4E0EF0EF11CD01609F441
:104FA00049C7D8018D918D010E94A637882399F3B6
:104FB000E2CF0E94ADA43EC70E9457A43BC70E9407
:104FC000FDA338C70E942BA335C780E50E94A637F2
:104FD000882351F00E947337609346097093470904
:104FE000809348099093490989E40E94A637882351
:104FF00081F00E9473372CEA35EC47E25EE30F94B0
:10500000233C609342097093430980934409909331
:10501000450984E40E94A637882381F00E947337F3
:105020002CEA35EC47E25EE30F94044160933E09BD
:1050300070933F098093400990934109EBEBF7E2AD
:1050400084918F010F5F1F4F882321F00E940A3641
:10505000F801F6CF409146095091470960914809FF
:10506000709149098AEE96E00E941D712CEA35EC98
:1050700047E25EE3609142097091430980914409DF
:10508000909145090F940441AB01BC0186EE96E076
:105090000E9400712CEA35EC47E25EE360913E0924
:1050A00070913F0980914009909141090F94233CF0
:1050B000AB01BC0182EE96E00E9400718AE00E9482
:1050C0000A36B8C683E50E94A637182F882371F0E8
:1050D0000E9473370F946C4170938C0260938B0223
:1050E00021E0672B09F020E02093F01180E50E9479
:1050F000A637882359F020918B0230918C02232B04
:1051000011F00E9464378093F01194C6111192C679
:10511000EBEBF7E284918F010F5F1F4F882321F0A3
:105120000E940A36F801F6CF8091F011811103C078
:105130006AE373E002C06DE273E083E097E00E94EF
:10514000537160918B0270918C0282EF96E00E9405
:105150003A71EEEEF6E084918F010F5F1F4F8823C6
:1051600009F468C60E940A36F801F5CF85E40E946A
:10517000D537882321F00E9443377B0102C0E12C00
:10518000F12C83E40E94D537882331F00E94433705
:10519000A4966FAFA49704C025E0A4962FAFA49760
:1051A00085E50E94D537882319F00E94643703C033
:1051B00085E50E94A637E0968FAFE097F7FC07C021
:1051C000812C912C06E1A02E03E4B02E06C0812C88
:1051D000912C1CE8A12E12E4B12E83E50E94D53754
:1051E000882321F00E9473374B015C01E114F10424
:1051F00011F4109202130F94C0032B013C01DC0147
:10520000CB018C53964FAF4FBF4F80934A09909379
:105210004B09A0934C09B0934D0981E08E0D82306B
:1052200018F405E513E00BC008E613E0D8018D91F2
:105230008D01882309F4EDCA0E940A36F7CFF801E0
:1052400081918F01882319F00E940A36F8CFEFAEC2
:105250008AE00E940A360F94A40BFFADF7FF04C04A
:105260008FE78093011307C0EE2DEE0CFF0BE0508B
:10527000FD4E8FE78083C501B4010F946C41072E6A
:10528000000C880B990B0F94C43B29966FAF29979C
:105290002D967FAF2D972E968FAF2E972F969FAF7F
:1052A0002F97A3019201205E314B4F4F5F4FEC9639
:1052B0002CAF3DAF4EAF5FAFEC9781E080933B02E8
:1052C000AB964CAE5DAE6EAE7FAEAB97E4964CAE99
:1052D0005DAE6EAE7FAEE497A7961FAEA797E89639
:1052E0001CAE1DAE1EAE1FAEE8976A961FAE6A9743
:1052F00030E46B963FAF6B974CE16C964FAF6C9779
:1053000056E46D965FAF6D976E961FAE6E976F9673
:105310001FAE6F97A0961FAEA097A1961FAEA19744
:1053200069961CAE1DAE1EAE1FAE699765961CAE8B
:105330001DAE1EAE1FAE659724961CAE1DAE1EAEF2
:105340001FAE2497AFE7CA2ED12CE12CF12C8FE7AA
:1053500090E0A0E0B0E028968CAF9DAFAEAFBFAFBD
:105360002897AF961CAE1DAE1EAE1FAEAF9791E054
:10537000A6969FAFA69761961FAE1EAE619710E0EE
:10538000212C312C00E0AFAD8A2FAA0F990BFC0124
:10539000E050FD4EEE96FFAFEEAFEE97880F991FEF
:1053A000880F991F9C0124513E4EA3963FAF2EAF0C
:1053B000A397A4964FADA497042E000C550BA59669
:1053C0005FAF4EAFA59780913B02882309F437C1A8
:1053D0000F94C0034B015C018091FE12882309F4F5
:1053E0000AC10F94690C5FAD57FF09C010914412B8
:1053F0002090451230904612009147120DC0A3969E
:10540000AEADBFADA3971C9111962C90119712963B
:105410003C90129713960C91212F322D432D502F33
:105420006E966FAD6E976F967FAD6F97A0968FADAE
:10543000A097A1969FADA1970F94BE3B87FF0CC08C
:105440006E961FAF6E976F962FAE6F97A0963FAE7A
:10545000A097A1960FAFA197212F322D432D502F4A
:105460006A966FAD6A976B967FAD6B976C968FADB2
:105470006C976D969FAD6D970F949C42181664F4CF
:105480006A961FAF6A976B962FAE6B976C963FAE7E
:105490006C976D960FAF6D9780914A0990914B096B
:1054A000A0914C09B0914D09A5019401281B390B1D
:1054B0004A0B5B0B57FD10C00E949383D501C401BA
:1054C0008C53964FAF4FBF4F80934A0990934B092F
:1054D000A0934C09B0934D09A6963FADA697299687
:1054E0002FAD2997332309F461C02D963FAD2D9739
:1054F0002E964FAD2E972F965FAD2F97612F722D61
:10550000832D902F0F949C4218160CF074C0B50197
:10551000A4014419550966097709DB01CA018858B5
:105520009341A109B109B7FD66C028968CAD9DAD28
:10553000AEADBFAD28978C199D09AE09BF09EFAD7F
:10554000B595A79597958795E7FF03C080930113BD
:1055500005C0EE96EEADFFADEE978083AF964CAFF3
:105560005DAF6EAF7FAFAF972996FFAD29976E966F
:10557000FFAF6E972D962FAD2D976F962FAF6F972C
:105580002E963FAD2E97A0963FAFA0972F964FAD8A
:105590002F97A1964FAFA197AB968CAE9DAEAEAEB6
:1055A000BFAEAB97A6961FAEA69725C02D963FAD72
:1055B0002D972E964FAD2E972F965FAD2F97612F7B
:1055C000722D832D902F0F94BE3B87FF14C0D50101
:1055D000C401AB962CAD3DAD4EAD5FADAB97821B1C
:1055E000930BA40BB50BAC01BD01485853416109A5
:1055F000710977FF71C720E030E040EA51E4299655
:105600006FAD29972D967FAD2D972E968FAD2E9746
:105610002F969FAD2F970F9428409B01AC01612FCF
:10562000722D832D902F0F949C4218167CF4E1E18B
:10563000F8E084918F010F5F1F4F811103C00F9419
:10564000A40BF8C30E940A36F801F3CFD501C401B8
:10565000E4962CAD3DAD4EAD5FADE497821B930B50
:10566000A40BB50BB7FD9BC00F9453098AE00E94B1
:105670000A36D501C4018053984FAF4FBF4FE4960F
:105680008CAF9DAFAEAFBFAFE497A7969FADA79786
:10569000911162C0E8962CAD3DAD4EAD5FADE8977F
:1056A000612F722D832D902F0F949C4218160CF0B1
:1056B00040C020E030E040EC50E429966FAD2997DF
:1056C0002D967FAD2D972E968FAD2E972F969FAD51
:1056D0002F970F9427409B01AC01A1E0A796AFAF95
:1056E000A797612F722D832D902F0F949C4218162F
:1056F0001CF0A7961FAEA79720E030E040E050E4F2
:10570000612F722D832D902F0F942840E8966CAF57
:105710007DAF8EAF9FAFE897A5019401205E314B1E
:105720004F4F5F4FEC962CAF3DAF4EAF5FAFEC9756
:1057300036C0D501C401EC962CAD3DAD4EAD5FAD8C
:10574000EC97821B930BA40BB50BB7FD28C043EF5E
:1057500057E062E078E020C020E030E040EA51E429
:1057600029966FAD29972D967FAD2D972E968FADEB
:105770002E972F969FAD2F970F9427409B01AC013A
:10578000612F722D832D902F0F94BE3B87FF07C092
:1057900043ED57E063EE77E08FAD0E942683D5019D
:1057A000C401880F991FAA1FBB1FAB962CAD3DAD3E
:1057B0004EAD5FADAB97821B930BA40BB50B841959
:1057C0009509A609B70981389F44A241B10568F03F
:1057D000E5EBF7E084918F010F5F1F4F882309F4F9
:1057E0002ECF0E940A36F801F5CF61964EAD5FAD1F
:1057F0006197A5968EAD9FADA597841795070CF080
:10580000C1C0E8E5F7E084918F010F5F1F4F882347
:1058100021F00E940A36F801F6CF9FAD97FD03C034
:105820000FEB13E002C00EE313E0B80186E497E04B
:105830000E94537124964CAD5DAD6EAD7FAD249743
:1058400082E497E00E941D718AE00E940A36B80146
:1058500080E397E00E94537165964CAD5DAD6EADEF
:105860007FAD65978CE297E00E941D718AE00E94EF
:105870000A36B8018AE197E00E94537169964CADEF
:105880005DAD6EAD7FAD699786E197E00E941D71B9
:105890008AE00E940A36E096AFADE097AA2309F4A9
:1058A000C9C2BFADB7FF37C024962CAD3DAD4EADDC
:1058B0005FAD2497209346093093470940934809E8
:1058C000509349092CEA35EC47E25EE365966CADEE
:1058D0007DAD8EAD9FAD65970F94233C60934209DB
:1058E0007093430980934409909345092CEA35EC61
:1058F00047E25EE369966CAD7DAD8EAD9FAD699775
:105900000F94044160933E0970933F0980934009CE
:10591000909341098FC224968CAD9DADAEADBFADC5
:1059200024978093330A9093340AA093350AB09356
:10593000360A2CEA35EC47E25EE365966CAD7DAD48
:105940008EAD9FAD65970F94233C60933B0A709397
:105950003C0A80933D0A90933E0A2CEA35EC47E2DC
:105960005EE369966CAD7DAD8EAD9FAD69970F948A
:1059700004416093370A7093380A8093390A9093F0
:105980003A0A58C20E9495F21ECD0E94968552C2D4
:1059900081E00E949D774EC280E00E949D774AC2BE
:1059A0008091390C90913A0CA0913B0CB0913C0C39
:1059B00089839A83AB83BC8380913D0C90913E0C8C
:1059C000A0913F0CB091400C8D839E83AF83B8872C
:1059D0008091410C9091420CA091430CB091440CE9
:1059E00089879A87AB87BC8786E50E94A63788237C
:1059F00041F08091611490916214892B11F00F9401
:105A000090298AE50E94A637882321F00E947337E7
:105A10000F94C91583E50E94A637882331F00E94B0
:105A20006437182F0E94197701C010E0F0909E147F
:105A3000111103C0EBEBF7E21AC0F110FBCFE3EC5E
:105A4000F0E284918F010F5F1F4F882321F00E94A5
:105A50000A36F801F6CFE5EAF8E084918F010F5F8E
:105A60001F4F882339F30E940A36F801F6CF84913C
:105A70008F010F5F1F4F882321F00E940A36F80123
:105A8000F6CFF11003C066E473E002C062E473E095
:105A900087E998E00E9453718AE00E940A36EBEB96
:105AA000F7E284918F010F5F1F4F882321F00E943E
:105AB0000A36F801F6CFEAE8F8E084918F010F5F2B
:105AC0001F4F882321F00E940A36F801F6CFC090BC
:105AD0009F14D090A014E090A114F090A21420E0A4
