:100000000C94E2180C9413190C9413190C941319F2
:100010000C9413190C9413190C9413190C941319B0
:100020000C9413190C9413190C9413190C941319A0
:100030000C9413190C9413190C9413190C94131990
:100040000C9413190C94FBEE0C9413190C941319C3
:100050000C9413190C9413190C94A78D0D94690B1F
:100060000C9413190C941E470C9413190C94131927
:100070000C9413190C9413190C9413190C94131950
:100080000C9413190C9413190C9413190C94131940
:100090000C9413190C9413190C9413190C94131930
:1000A0000C9413190C9413190C9413190C94131920
:1000B0000C9413190C9413190C9413190C94131910
:1000C0000C9413190C9413190C9413190C94131900
:1000D0000C9413190C9413190C9413190C941319F0
:1000E0000C941319DCC2C2C2C5C2C8C2CBC2D7C2EB
:1000F000CEC2E8C2D1C2D4C21601CE00D0000E01D9
:10010000C60006012C012201DA00F000FC00F80014
:100110002001280106010201E200CA000801EA00EC
:10012000C800D400F600E000DC001C011401D2007D
:10013000DE00000110010C01E000E8002A01F200DD
:10014000084AD73B3BCE016E84BCBFFDC12F3D6C3E
:1001500074319ABD56833DDA3D00C77F11BED9E4A4
:10016000BB4C3E916BAAAABE000000803F05A84C84
:10017000CDB2D44EB93836A9020C50B99186880850
:100180003CA6AAAA2ABE000000803F000D94A10947
:100190000D948F0A0D94DA090D94ED170D94A809AA
:1001A0000D9497090D94C70A0D94990A0D9475162C
:1001B0000D940A1D0D94B6090D94AD0A0D94D10A43
:1001C0000D941C0B0D94D6090D9469150D946413B0
:1001D0000D94FE0A0D948A0A0D9479160D94A517B4
:1001E0000D94BA090D94120B0D94CF110D94A30A1E
:1001F0000D94C4090D945A2E0D94BE090D94351812
:100200000D94DB0A0D94D2090D945D170D94DF094E
:100210000D94850A0D9477160D94F40A0D949B099C
:100220000D94EA0A0D942B0C0D94BD0A0D94A509AA
:100230000D94FC0F0D94DC140D94B50A0D949F2EB3
:100240000D94C8090D94B0090D9409170D94C116A9
:100250000D94CC090D94080B0D94AC094E414E49F8
:100260004E495459494E46CDCCCC3D0AD7233C1774
:10027000B7D13877CC2B329595E6241FB14F0A00C1
:100280000020410000C84200401C4620BCBE4CCAB1
:100290001B0E5AAEC59D7447322F473320626164EE
:1002A00020706172616D65746572730A004D6573CB
:1002B0006820706F696E742063616E6E6F74206267
:1002C00065207265736F6C7665640A00436C6963C0
:1002D0006B20746F20726573756D652E2E2E004E27
:1002E0006F206D6F76652E00456E642066696C65C3
:1002F000206C6973740A00426567696E2066696CD8
:1003000065206C6973740A004D31323500286E6FB8
:100310002066696C6529005344207072696E7469A7
:100320006E67206279746520004E6F7420534420FC
:100330007072696E74696E670A0043757272656ED9
:10034000742066696C653A200046696C65206465B6
:100350006C657465643A0044656C6574696F6E2001
:100360006661696C65642C2046696C653A20004BB7
:10037000494C4C45442E2000416E79637562696397
:10038000204B6F7373656C204F66662E00205400FF
:10039000205200416363656C65726174696F6E3AE7
:1003A0002050005741524E494E4721204C6F772034
:1003B0005A204A65726B206D6179206C65616420FA
:1003C000746F20756E77616E7465642070617573EB
:1003D00065732E0A00205A00205900580020204D35
:1003E00061783A2000205A00205900580020204D02
:1003F000696E3A20004F666600536F667420656E22
:100400006473746F70733A200020466C6F773A20E3
:10041000000001363726FF02FFFF353C3D38FF0F55
:10042000FFFF312E303E1213FFFFFF28FF0C08099B
:10043000FFFF071A1C18FFFF2A08440A2C432064F8
:100440003A0020693A0020703A00496E76616C6982
:10045000642065787472756465720A0043290A0025
:1004600061626C656420286D696E2074656D702012
:1004700000436F6C642065787472756465732061E5
:10048000726520004B64200023646566696E6520F8
:1004900044454641554C545F004B69200023646538
:1004A00066696E652044454641554C545F004B706B
:1004B000200023646566696E652044454641554CBD
:1004C000545F00504944204175746F74756E652007
:1004D00066696E697368656421205075742074685C
:1004E00065206C617374204B702C204B6920616E09
:1004F00064204B6420636F6E7374616E7473206646
:10050000726F6D2062656C6F7720696E746F204327
:100510006F6E66696775726174696F6E2E680A0026
:10052000504944204175746F74756E652066616929
:100530006C6564212074696D656F75740A004531BE
:1005400020544845524D414C2052554E4157415937
:100550000042454420544845524D414C2052554E8E
:100560004157415900546865726D616C2052756E37
:10057000617761790045312048656174696E672053
:100580006661696C656400426564206865617469D0
:100590006E67206661696C65640048656174696EA8
:1005A00067206661696C6564005049442041757438
:1005B0006F74756E65206661696C65642120546591
:1005C0006D706572617475726520746F6F206869F3
:1005D00067680A00204B643A2000204B693A2000EB
:1005E000204B703A20000A20436C617373696320CA
:1005F000504944200A002054753A2000204B753A97
:100600002000206D61783A2000206D696E3A20004C
:1006100020643A200020626961733A200050494406
:10062000204175746F74756E65206661696C6564D0
:100630002120426164206578747275646572206E51
:10064000756D6265720A00504944204175746F747B
:10065000756E652073746172740A0020643A00201C
:10066000693A0020703A00454550524F4D204F4B9B
:100670000A00496E736572742066696C616D656EFF
:100680007420616E64207072657373206275747477
:100690006F6E0A00507265737320627574746F6EAA
:1006A00020746F2068656174206E6F7A7A6C650AB9
:1006B00000496E736572742066696C616D656E7455
:1006C00020616E6420707265737320627574746F3C
:1006D0006E20286F72204D313038290A003A2000F0
:1006E00050726F6265205A204F6666736574003FD2
:1006F0005A206F7574206F662072616E67652028BE
:100700002D323020746F203230290A004163746921
:1007100076652045787472756465723A2000496E7A
:1007200076616C69642065787472756465720A001C
:100730002569730025696D20256973002569682086
:1007400025696D2025697300256964202569682065
:1007500025696D2025697300256979202569642044
:100760002569682025696D20256973004E6F204337
:100770006865636B73756D2077697468206C696E4A
:1007800065206E756D6265722C204C617374204C0F
:10079000696E653A20004B494C4C45442E2000536D
:1007A000544F505045442E20005072696E7465724B
:1007B0002073746F707065642064756520746F2099
:1007C0006572726F72732E20466978207468652096
:1007D0006572726F7220616E6420757365204D3989
:1007E000393920746F20726573746172742E2028F9
:1007F00054656D70657261747572652069732072DD
:10080000657365742E205365742069742061667465
:1008100065722072657374617274696E67290A006B
:100820004E6F20436865636B73756D2077697468DC
:10083000206C696E65206E756D6265722C204C614E
:100840007374204C696E653A2000636865636B734E
:10085000756D206D69736D617463682C204C6173D4
:1008600074204C696E653A20004C696E65204E75A7
:100870006D626572206973206E6F74204C617374B1
:10088000204C696E65204E756D6265722B312C208F
:100890004C617374204C696E653A20004D313130E3
:1008A000004D3331005344207265616420657272DB
:1008B0006F720A00446F6E65207072696E74696EA3
:1008C000672066696C650A0020496E76616C696410
:1008D00020657874727564657220000000E8C200BB
:1008E00000E8C2000000000000E8420000E8429A70
:1008F000999343486F6D6520257325732573206692
:1009000069727374002066697273740A005A005920
:10091000005800486F6D65200050726F62696E6705
:10092000206661696C65640A0050726F62696E6767
:10093000206661696C656400205A3A200020593AAB
:10094000200042656420583A200042696C696E6557
:100950006172204C6576656C696E672047726964C8
:100960003A0A007879007A7800797A00207A0020B3
:10097000790020780063002E2020202000253033CD
:10098000692E7800302E25303369002073643A00D8
:10099000737464206465763A0073746420646576C9
:1009A0003A004E6F20636F6E76657267656E6365A1
:1009B00000497465726174696F6E203A2025303287
:1009C0006900536176652077697468204D35303051
:1009D00020616E642F6F7220636F707920746F20B6
:1009E000436F6E66696775726174696F6E2E680019
:1009F000253033692E7800302E253033690043616D
:100A00006C6962726174696F6E2073643A00726F10
:100A10006C6C696E67206261636B2E007374642076
:100A20006465763A0043616C6962726174696F6EE5
:100A3000204F4B00456E64204452592D52554E00B4
:100A4000436F72726563742064656C7461207365B2
:100A50007474696E67732077697468204D36363513
:100A600020616E64204D3636360A0020202853451A
:100A7000542D5550290020284452592D52554E29A5
:100A8000003F284D36363520422965642072616466
:100A900069757320697320696D706C617573696223
:100AA0006C652E0A00436865636B696E672E2E2E97
:100AB00020414300473333204175746F2043616CFC
:100AC0006962726174650A003F2856296572626F17
:100AD0007365206C6576656C20697320696D706C38
:100AE00061757369626C65202830202D2033292EB2
:100AF0000A003F2846296F72636520697465726138
:100B000074696F6E20697320696D706C61757369AB
:100B1000626C65202830202D203330292E0A003FBA
:100B2000284329616C6962726174696F6E2070720A
:100B300065636973696F6E20697320696D706C619C
:100B4000757369626C6520283E3D30292E0A003F8E
:100B50002850296F696E747320697320696D706CF9
:100B600061757369626C6520282D31202D2031302C
:100B7000292E0A00454550524F4D2064617461731F
:100B8000697A65206572726F722E0A00290A002048
:100B900062797465733B20637263200053657474DB
:100BA000696E67732053746F726564202800290A88
:100BB000002062797465733B2063726320002073A8
:100BC000746F7265642073657474696E67732072E4
:100BD0006574726965766564202800202863616CFD
:100BE00063756C6174656429210A0020213D200031
:100BF000454550524F4D20435243206D69736D61FE
:100C0000746368202D202873746F72656429200036
:100C10002053697A653A2000496E6465783A20006D
:100C2000204D61726C696E3D563535290A002845A4
:100C30004550524F4D3D00454550524F4D20766531
:100C40007273696F6E206D69736D617463682000E3
:100C50007C3C3E5E2B3D3F2F5B5D3B2C2A225C00A3
:100C60004572726F722077726974696E6720746F53
:100C700020454550524F4D210A00746F2072657314
:100C8000756D65005761697420666F7220707269B6
:100C90006E7400436172642072656D6F76656400E6
:100CA0004361726420696E7365727465640000004C
:100CB0000000010204040000001C1C0C04040402D7
:100CC0000100000000000408100000000000000007
:100CD00020002300260029002C002F0032000001F4
:100CE00000000301060109010505050507050808BF
:100CF0000808020202020A0A0808040404040101A6
:100D000001010101010103030303030303030407BA
:100D100007070C0C0C0C0C0C0C0C02020202060651
:100D20000606060606060B0B0B0B0B0B0B0B010244
:100D300010202008081020401020408002010201ED
:100D400008040201010204081020408080402010A5
:100D500008040201800402018040201008040201FE
:100D60000804020101020408102040800102040866
:100D70001020408000000A0B02090C0D0E0807032A
:100D8000040100000000000000000000000000005E
:100D90000000000000000000000000000000000053
:100DA0001211100000000000000000000000000010
:100DB000000000000000000000004B494C4C45447E
:100DC0002E2000202D20496E76616C6964206578A4
:100DD000747275646572206E756D62657220210A89
:100DE00000001C1F11111F00000006191803130C2E
:100DF00000040E1F041C000000000E1315110E004D
:100E0000001C10181705060500040A0A0A0A111129
:100E10000E0C12120C00000000001F1511151F000F
:100E2000002D2D2D2D2D2D007C4D61726C696E7C59
:100E3000002D2D2D2D2D2D0057656C636F6D6520B8
:100E4000746F20416E7963756269632E0057656C1B
:100E5000636F6D6520746F20416E7963756269639D
:100E60002E006275676669782D312E312E7800620A
:100E700075676669782D312E312E7800002020505C
:100E80006C616E6E657242756666657242797465F4
:100E9000733A20002046726565204D656D6F72794A
:100EA0003A2000436F6D70696C65643A204A756C36
:100EB00020323520323031380A00207C20417574D0
:100EC000686F723A20286E6F6E652C2064656661CB
:100ED000756C7420636F6E666967290A0032303161
:100EE000382D30312D323000204C61737420557014
:100EF00064617465643A20006275676669782D31B3
:100F00002E312E780A004D61726C696E0020536F8D
:100F10006674776172652052657365740A002057A4
:100F200061746368646F672052657365740A00209A
:100F300042726F776E206F75742052657365740A04
:100F4000002045787465726E616C2052657365741B
:100F50000A00506F77657255700A0073746172747D
:100F60000A006175746F25692E67006572726F7271
:100F70002077726974696E6720746F2066696C658A
:100F80000A00456E6473746F7073202563202563B7
:100F900020256320256300205A3A0020593A00207A
:100FA000583A00656E6473746F7073206869743AA0
:100FB0002000446F6E6520736176696E67206669F4
:100FC0006C652E0A004D323900627573793A2070D3
:100FD000617573656420666F7220696E7075740A3E
:100FE00000627573793A2070617573656420666F6D
:100FF0007220757365720A00627573793A20707297
:101000006F63657373696E670A004B494C4C4544C6
:101010002E20004B494C4C2063617573656420623F
:1010200079204B494C4C20627574746F6E2F706937
:101030006E0A004B494C4C45442E20004B494C4C09
:101040002063617573656420627920746F6F206D11
:1010500075636820696E6163746976652074696D73
:1010600065202D2063757272656E7420636F6D6DDF
:10107000616E643A2000506C65617365207265731F
:101080006574005052494E5445522048414C5445D5
:1010900044005072696E7465722068616C74656496
:1010A0002E206B696C6C28292063616C6C6564214F
:1010B0000A00656E7175657565696E6720220000AE
:1010C000004842000048420000484200000000572B
:1010D00061726E696E673A20486F6D696E67204273
:1010E000756D702044697669736F72203C20310AF7
:1010F000000A0A0A0000A0400000A0400000A04032
:1011000000006843000068439A999343010101007D
:10111000002110422063308440A550C660E770086B
:101120008129914AA16BB18CC1ADD1CEE1EFF131F2
:1011300012100273325222B5529442F772D66239BB
:101140009318837BB35AA3BDD39CC3FFF3DEE36242
:1011500024433420040114E664C774A44485546A0B
:10116000A54BB528850995EEE5CFF5ACC58DD553D2
:1011700036722611163006D776F6669556B4465B5B
:10118000B77AA719973887DFF7FEE79DD7BCC7C4A2
:1011900048E5588668A7784008611802282338CCAB
:1011A000C9EDD98EE9AFF9488969990AA92BB9F532
:1011B0005AD44AB77A966A711A500A333A122AFDFB
:1011C000DBDCCBBFFB9EEB799B588B3BBB1AABA602
:1011D0006C877CE44CC55C222C033C600C411CAE4B
:1011E000ED8FFDECCDCDDD2AAD0BBD688D499D9712
:1011F0007EB66ED55EF44E133E322E511E700E9F9B
:10120000FFBEEFDDDFFCCF1BBF3AAF599F788F8861
:1012100091A981CAB1EBA10CD12DC14EF16FE18032
:1012200010A100C230E3200450254046706760B929
:10123000839893FBA3DAB33DC31CD37FE35EF3B182
:10124000029012F322D2323542145277625672EA79
:10125000B5CBA5A89589856EF54FE52CD50DC5E2D2
:1012600034C324A01481046674476424540544DB09
:10127000A7FAB79987B8975FE77EF71DC73CD7D322
:1012800026F2369106B01657667676154634564CD9
:10129000D96DC90EF92FE9C899E9898AB9ABA94472
:1012A00058654806782768C018E1088238A3287D69
:1012B000CB5CDB3FEB1EFBF98BD89BBBAB9ABB75C2
:1012C0004A545A376A167AF10AD01AB32A923A2E39
:1012D000FD0FED6CDD4DCDAABD8BADE89DC98D2612
:1012E0007C076C645C454CA23C832CE01CC10C1F49
:1012F000EF3EFF5DCF7CDF9BAFBABFD98FF89F1762
:101300006E367E554E745E932EB23ED10EF01E2C7C
:10131000FFFFFFFFFF0001010101016265640A0098
:101320002C2073797374656D2073746F70706564AD
:1013300021204865617465725F49443A2000426526
:10134000642068656174696E67206661696C6564B4
:101350000048656174696E67206661696C65640048
:1013600045312048656174696E67206661696C6506
:10137000640048656174696E67206661696C6564C4
:10138000001000C90210012C014001220170011857
:1013900001B0010E01F00104015002FA00B002F0A8
:1013A000003003E600D003DC009004D2007005C8D2
:1013B00000A006BE000008B400B009AA00D00BA02F
:1013C00000600E960060118C0000158200201978D4
:1013D00000C01D6E00A0226400B0275A00902C505F
:1013E0000000314600E0343C0010383200903A28CA
:1013F00000603C1E00A03D1400803E0A00203F001B
:1014000000453120544845524D414C2052554E41E3
:101410005741590042454420544845524D414C20C3
:1014200052554E4157415900546865726D616C20A8
:1014300052756E61776179004531204572723A20AC
:101440004D415854454D50004572723A204D415817
:1014500054454D5020424544004D415854454D504F
:101460002074726967676572656400453120457252
:10147000723A204D494E54454D50004572723A2003
:101480004D494E54454D5020424544004D494E541F
:10149000454D5020747269676765726564004D3808
:1014A0003420582059205A204500202F0020424047
:1014B0003A0020403A00536C6565702E2E2E0000D5
:1014C000000000000000009A9993432028445259DC
:1014D00052554E2900473239204175746F204265BC
:1014E00064204C6576656C696E67003F20284C2C43
:1014F000522C462C4229206F7574206F6620626F33
:10150000756E64732E0A003F2856296572626F73E8
:1015100065206C6576656C20697320696D706C61FF
:10152000757369626C652028302D34292E0A0042BB
:101530006164205A2076616C75650A004E6F2062E6
:10154000696C696E65617220677269640A00205A6D
:101550003A200020593A200042656420583A200081
:101560002020004F66667365740020205261646914
:1015700075733A00547A0054790054780020205250
:1015800061646975733A00457A00457900457800D1
:101590002E4865696768743A005654726176206D0A
:1015A000696E005654726176206D696E00565472F1
:1015B0006176206D696E00566D696E00566D696EBC
:1015C00000566D696E00566D6178204500566D615C
:1015D00078204500566D6178204500566D61782071
:1015E0004300566D6178204300566D6178204300BA
:1015F000566D6178204200566D6178204200566D2C
:101600006178204200566D6178204100566D617806
:10161000204100566D61782041004D6F74696F6EF6
:1016200000416D6178204500416D617820450041A1
:101630006D6178204300416D6178204300416D6108
:1016400078204200416D6178204200416D61782030
:101650004100416D6178204100412D7472617665D1
:101660006C00412D74726176656C00412D72657459
:101670007261637400412D7265747261637400411C
:101680006363656C00416363656C004D6F74696FE3
:101690006E0056652D6A65726B0056652D6A65721F
:1016A0006B0056652D6A65726B0056632D6A657214
:1016B0006B0056632D6A65726B0056632D6A657206
:1016C0006B0056622D6A65726B0056622D6A6572F8
:1016D0006B0056622D6A65726B0056612D6A6572E9
:1016E0006B0056612D6A65726B0056612D6A6572DA
:1016F0006B004D6F74696F6E004573746570732F66
:101700006D6D004573746570732F6D6D0043737458
:101710006570732F6D6D004373746570732F6D6DFD
:10172000004273746570732F6D6D00427374657041
:10173000732F6D6D004173746570732F6D6D004173
:1017400073746570732F6D6D004D6F74696F6E00EB
:10175000496E697469616C697A6520454550524FDC
:101760004D00436F6E74726F6C00526573746F72CC
:1017700065206661696C73616665004C6F61642009
:1017800073657474696E677300496E697469616C1E
:10179000697A6520454550524F4D0053746F72650C
:1017A0002073657474696E67730046696C616D655A
:1017B0006E74004D6F74696F6E0054656D70657264
:1017C0006174757265004D61696E0050726568657F
:1017D00061742041425320636F6E660050726568E9
:1017E00065617420504C4120636F6E66005049441F
:1017F0002D44005049442D44005049442D49005087
:1018000049442D49005049442D50005049442D5021
:101810000020022046616374002002204661637448
:10182000002002204D6178002002204D61780020C8
:1018300002204D6178002002204D696E00200220B8
:101840004D696E002002204D696E004F6666004FA4
:101850006E20004175746F74656D700046616E2076
:1018600073706565640046616E2073706565640021
:1018700042656400426564004E6F7A7A6C65004E82
:101880006F7A7A6C6500436F6E74726F6C0053747C
:101890006F72652073657474696E67730042656466
:1018A00000426564004E6F7A7A6C65004E6F7A7AFA
:1018B0006C650046616E2073706565640046616EFC
:1018C0002073706565640054656D70657261747530
:1018D000726500434F4D4D554E49434154494F4E5B
:1018E0000044525952554E004552524F52530049EE
:1018F0004E464F004543484F00F418EF18E818E1F2
:1019000018D3186F66660044454255473A004D317A
:1019100031332053004D31343520533C696E6465BA
:10192000783E206F7574206F662072616E67652047
:1019300028302D31290A0050533A310A0050533AC9
:10194000300A00205A3A0020593A0020436F756E41
:101950007420583A0020453A00205A3A0020593A5B
:1019600000583A003A004361703A00544845524DDD
:10197000414C5F50524F54454354494F4E004155DE
:10198000544F5245504F52545F53445F5354415447
:10199000555300454D455247454E43595F504152BE
:1019A00053455200434153455F4C494748545F42B9
:1019B00052494748544E45535300544F47474C45AE
:1019C0005F4C494748545300534F46545741524582
:1019D0005F504F574552004255494C445F50455265
:1019E00043454E54004C4556454C494E475F444193
:1019F0005441005A5F50524F4245004155544F4C9C
:101A00004556454C005052494E545F4A4F42005093
:101A1000524F4752455353004155544F5245504F32
:101A200052545F54454D5000564F4C554D455452FD
:101A3000494300454550524F4D0053455249414C92
:101A40005F584F4E5F584F4646004649524D5741EA
:101A500052455F4E414D453A4D61726C696E206250
:101A600075676669782D312E312E78202847697484
:101A70006875622920534F555243455F434F444593
:101A80005F55524C3A68747470733A2F2F676974BB
:101A90006875622E636F6D2F4D61726C696E466959
:101AA000726D776172652F4D61726C696E20505254
:101AB0004F544F434F4C5F56455253494F4E3A3166
:101AC0002E30204D414348494E455F545950453AC8
:101AD000416E796375626963204B6F7373656C2027
:101AE00045585452554445525F434F554E543A3130
:101AF00020555549443A63656465326132662D3438
:101B00003161322D343734382D396231322D63351D
:101B1000356336326633363766660A002F2F20006B
:101B2000426564204C6576656C696E67200046618D
:101B3000696C656420746F20656E61626C6520421B
:101B40006564204C6576656C696E670A004D657347
:101B50006820706F696E742063616E6E6F742062AE
:101B600065207265736F6C7665640A004D3432319E
:101B700020696E636F727265637420706172616D4B
:101B8000657465722075736167650A004E6F206326
:101B9000617365206C696768740A00416E796375CA
:101BA000626963204B6F7373656C20526561647961
:101BB0002E005072696E74696E672E2E2E00507260
:101BC000696E7420706175736564004D3132350043
:101BD0004D3234005072696E742061626F727465A8
:101BE00064005072696E742066726F6D20534400F9
:101BF00053746F70207072696E7400526573756DE6
:101C000065207072696E7400506175736520707222
:101C1000696E74004E6F2053442063617264004308
:101C20006F6E74726F6C00507265706172650054F3
:101C3000756E6500496E666F2073637265656E0030
:101C40004368616E67652066696C616D656E7400DE
:101C50004368616E67652066696C616D656E7400CE
:101C60004D36303020423000466C6F7700466C6F46
:101C7000770046616E2073706565640046616E2072
:101C800073706565640042656400426564004E6F70
:101C90007A7A6C65004E6F7A7A6C65005370656570
:101CA00064005370656564004D61696E0050726533
:101CB0006865617420504C4120456E640050726527
:101CC0006865617420504C410050726568656174AC
:101CD00020504C412042656400507265706172650D
:101CE00000507265686561742041425320456E64FE
:101CF00000507265686561742041425320426564FA
:101D000000507265686561742041425300507265ED
:101D10007061726500486F74656E6420746F6F2027
:101D2000636F6C640A0053442063617264206F6BBC
:101D30000A006F70656E526F6F74206661696C6522
:101D4000640A00766F6C756D652E696E6974206625
:101D500061696C65640A00534420696E6974206689
:101D600061696C0A0057726974696E6720746F202C
:101D700066696C653A20006F70656E206661696CFB
:101D800065642C2046696C653A20006F70656E2092
:101D90006661696C65642C2046696C653A20004672
:101DA000696C652073656C65637465640A00205313
:101DB000697A653A200046696C65206F70656E65CA
:101DC000643A20002066696C653A2000646F696E91
:101DD00067006672657368004E6F772000454E4459
:101DE00020535542524F5554494E450A0022207007
:101DF0006F73002220706172656E743A2200535531
:101E000042524F5554494E452043414C4C20746139
:101E1000726765743A22004B494C4C45442E2000B1
:101E2000747279696E6720746F2063616C6C2073C3
:101E300075622D67636F64652066696C65732077D2
:101E400069746820746F6F206D616E79206C65769F
:101E5000656C732E204D4158206C6576656C206949
:101E6000733A004572726F723A0020746F6F206C83
:101E70006F6E6720657874727573696F6E2070720B
:101E80006576656E7465640A0020636F6C64206516
:101E90007874727573696F6E2070726576656E7492
:101EA00065640A0053776974636820706F776572A0
:101EB000206F6E004D38300053776974636820706E
:101EC0006F776572206F6666004D3831005072651D
:101ED00068656174204142530050726568656174A1
:101EE00020504C4100436F6F6C646F776E00436805
:101EF000616E67652066696C616D656E740043682C
:101F0000616E67652066696C616D656E74004D3643
:101F100030302042300044697361626C6520737414
:101F2000657070657273004D3834004F6666004FFF
:101F30006E2000426564204C6576656C696E6700B2
:101F400044656C74612043616C6962726174696F8D
:101F50006E004C6576656C20626564004732380A15
:101F6000473239004175746F20686F6D65004732E4
:101F700038004D6F76652061786973004D61696E38
:101F8000004469616720526F6400446961672052B0
:101F90006F6400547A00547A0054790054790054E4
:101FA0007800547800526164697573005261646905
:101FB000757300457A00457A0045790045790045FA
:101FC0007800457800486569676874004865696706
:101FD00068740044656C74612043616C696272616D
:101FE00074696F6E004C6F61642073657474696E00
:101FF00067730053746F72652073657474696E67DC
:10200000730044656C74612053657474696E677302
:102010000050726F6265205A2D6F6666736574009A
:1020200047333320502D31005365742044656C7460
:102030006120486569676874004733332050310078
:102040004175746F2043616C6962726174696F6E6F
:1020500000473333004D61696E004D6F766520583F
:10206000004D6F76652059004D6F7665205A00450A
:1020700078747275646572004D6F766520302E310C
:102080006D6D004D6F766520316D6D004D6F76651D
:102090002031306D6D004D6F766520617869730079
:1020A0004578747275646572004D6F7665205A00CC
:1020B0004D6F76652059004D6F76652058004D6F45
:1020C00076696E672E2E2E0045787472756465727F
:1020D000004175746F20686F6D6500473238004DA0
:1020E0006F7665205A0046726565205859004D6F1D
:1020F00076652059004D6F766520580050726570E6
:102100006172650043616E6E6F74206F70656E2042
:1021100073756264697220006563686F3A006F705E
:10212000656E206661696C65642C2046696C653A51
:1021300020004D3630303A20546F6F20636F6C644E
:1021400000486F74656E6420746F6F20636F6C64F9
:102150000A005072696E742074696D653A200050EF
:10216000726F7465637465642050696E0A00466915
:102170006C616D656E7420757365643A20005374EC
:102180006174733A20002C204C6F6E676573742065
:102190006A6F623A2000546F74616C2074696D65D7
:1021A0003A200053746174733A20002C2046616910
:1021B0006C65643A20002C2046696E69736865641A
:1021C0003A20005072696E74733A2000537461743F
:1021D000733A20006F6B0020573A004520436F6F21
:1021E0006C696E672E2E2E00452048656174696EFD
:1021F000672E2E2E0042656420636F6F6C696E67D8
:102200002E2E2E004265642068656174696E672E0B
:102210002E2E0025753A2530327500253032753A5C
:1022200025303275002D2D2D005344002020202014
:10223000202000202020200024F4D43050C38E2001
:10224000C2A24017828B7011127A910D816CD90A4B
:10225000A861E108C7586607615143061E4B5D053A
:10226000C145A7041A411104093D9803713931038E
:102270004036DB0265339102D4305402802E1D02B9
:10228000632CEE01752AC501B028A0011027810139
:102290008F2564012B244B01E0223401AC211F0166
:1022A0008D200D01801FFC00841EED00971DDF00B6
:1022B000B81CD200E61BC600201BBC00641AB2008A
:1022C000B219A8000A19A0006A189900D117910044
:1022D00040178B00B516840031167E00B3157900C7
:1022E0003A157300C7146F0058146A00EE136600A5
:1022F0008813630025135E00C7125B006C12570041
:1023000015125400C111510070114F0021114B00E2
:10231000D61049008D1047004610440002104200BC
:10232000C00F4000800F3E00420F3C00060F3B00F4
:10233000CB0E3800930E37005C0E3500270E3400AC
:10234000F30D3200C10D3100900D3000600D2E00F4
:10235000320D2D00050D2C00D90C2B00AE0C2900E0
:10236000850C29005C0C2700350C27000E0C26007C
:10237000E80B2400C40B2400A00B23007D0B2300DA
:102380005A0B2100390B2100180B2000F80A1F00FE
:10239000D90A1E00BB0A1E009D0A1D00800A1D00EE
:1023A000630A1C00470A1B002C0A1B00110A1A00B2
:1023B000F7091A00DD091900C4091900AB09190051
:1023C000920917007B091800630917004C091600D1
:1023D00036091600200916000A091500F50815002F
:1023E000E0081400CC081400B8081400A408140075
:1023F000900813007D0812006B08130058081200A3
:1024000046081200340811002308110012081100B8
:1024100001081100F0071000E0071000D0071000BD
:10242000C0071000B0070F00A107100091070E00B1
:1024300083070F0074070F0065070E0057070E0093
:1024400049070E003B070D002E070E0020070D0068
:1024500013070D0006070D00F9060C00ED060D0030
:10246000E0060C00D4060C00C8060C00BC060C00EC
:10247000B0060C00A4060B0099060C008D060B009C
:1024800082060B0077060B006C060B0061060A0043
:1024900057060B004C060A0042060A0038060A00DE
:1024A0002E060A0024060A001A060A001006090071
:1024B00007060A00FD050900F4050900EB050900FF
:1024C000E2050900D9050900D0050900C705090082
:1024D000BE050900B5050800AD050800A505090001
:1024E0009C050800940508008C0508008405080078
:1024F0007C050800740508006C05070065050800E8
:102500005D050700560508004E0507004705070052
:102510004005080038050700310507002A050700B7
:10252000230507001C050600160507000F05070018
:102530000805060002050700FB040600F504070075
:10254000EE040600E8040600E2040700DB040600CF
:10255000D5040600CF040600C9040600C304060023
:10256000BD040600B7040600B1040500AC04060073
:10257000A6040600A00405009B04060095040500BF
:10258000900406008A040500850405008004060006
:102590007A04050075040500700405006B0405004D
:1025A00066040500610405005C040500570405008D
:1025B000520405004D0405004804050043040500CD
:1025C0003E0404003A04050035040500300404000C
:1025D0002C04050027040400230405001E04040045
:1025E0001A04040016040500110404000D0404007C
:1025F000090405000404040000040400FC030400B2
:10260000F8030400F4030400F0030400EC030400E6
:10261000E8030400E4030400E0030400DC03040016
:10262000D8030400D4030400D0030400CC03040046
:10263000C8030300C503030024F404D9201BC40C01
:102640005C0E9804C4095F0265077101F405F90086
:10265000FB04B30048048700C10369005803550018
:1026600003034500BE023A008402310053022A00EF
:102670002902250004022000E4011C00C801190001
:10268000AF011700980114008401130071011000BC
:102690006101100051010E0043010D0036010B00D5
:1026A0002B010B0020010B00150109000C01090092
:1026B00003010800FB000800F3000800EB0007001E
:1026C000E4000600DE000600D8000600D200060086
:1026D000CC000500C7000500C2000500BD000400D5
:1026E000B9000400B5000400B1000400AD0004000E
:1026F000A9000400A5000300A20003009F0004003D
:102700009B00030098000300950002009300030063
:10271000900003008D0002008B000300880002007F
:102720008600020084000300810002007F00020096
:102730007D0002007B0002007900020077000100AA
:1027400076000200740002007200010071000200B5
:102750006F0002006D0001006C0002006A000100C1
:1027600069000200670001006600010065000100C9
:1027700064000200620001006100010060000100CD
:102780005F0002005D0001005C0001005B000100D1
:102790005A000100590001005800010057000100D3
:1027A00056000100550001005400010053000000D4
:1027B00053000100520001005100010050000100CF
:1027C0004F0001004E0000004E0001004D000100CE
:1027D0004C0001004B0000004B0001004A000100CA
:1027E00049000100480000004800010047000100C6
:1027F00046000000460001004500000045000100C1
:1028000044000100430000004300010042000000BA
:1028100042000100410000004100010040000100B1
:102820003F0000003F0001003E0000003E000100AC
:102830003D0000003D0001003C0000003C000000A5
:102840003C0001003B0000003B0001003A0000009A
:102850003A00010039000000390001003800000092
:102860003800000038000100370000003700010088
:102870003600000036000000360001003500000080
:102880003500000035000100340000003400000075
:102890003400010033000000330000003300010069
:1028A0003200000032000000320001003100000060
:1028B0003100000031000100300000003000000055
:1028C000300001002F0000002F0000002F0000004A
:1028D0002F0001002E0000002E0000002E0001003D
:1028E0002D0000002D0000002D0000002D00010033
:1028F0002C0000002C0000002C0000002C00010027
:102900002B0000002B0000002B0000002B0001001A
:102910002A0000002A0000002A0000002A0001000E
:102920002900000029000000290000002900000003
:1029300029000100280000002800000028000000F5
:1029400028000000280001002700000027000000E8
:1029500027000000270000002700010026000000DB
:1029600026000000260000002600000026000100CE
:1029700025000000250000002500000025000000C3
:1029800025000000250001002400000024000000B4
:1029900024000000240000002400010023000000A7
:1029A000230000002300000023000000230000009B
:1029B000230000002300010022000000220000008C
:1029C000220000002200000022000000220001007E
:1029D0002100000021000000210000002100000073
:1029E0002100000021000000210001002000000063
:1029F0002000000020000000200000002000000057
:102A00002000000020000000200001001F00000046
:102A10001F0000001F0000001F0000001F0000003A
:102A20001F0000001F0001001E0000001E0000002B
:102A30001E0000001E000000043700001E290000D8
:102A4000511B00005810000010090000CC040000C9
:102A500078020000410100003A0A0020286D6D292B
:102A60000020204D36303320002055004C004669B0
:102A70006C616D656E74206C6F61642F756E6C6F28
:102A80006164206C656E677468733A0A0020204D9B
:102A9000383531205A005A2D50726F6265204F66CA
:102AA000667365740020440020490020204D3330B7
:102AB0003420500020440020490020204D33303184
:102AC0002050005049442073657474696E67733AEE
:102AD0000A0020460020420020480020204D3134CA
:102AE000352053004D6174657269616C20686561C1
:102AF00074757020706172616D65746572733A0AE5
:102B000000205A0020590020580020420020530085
:102B100020480020520020204D363635204C0044FD
:102B2000656C74612073657474696E67733A204CC8
:102B30003C646961676F6E616C5F726F643E2052C6
:102B40003C7261646975733E20483C6865696768DA
:102B5000743E20533C7365676D656E74735F70657A
:102B6000725F733E20423C63616C6962726174699A
:102B70006F6E207261646975733E2058595A3C74B7
:102B80006F77657220616E676C6520636F72726526
:102B90006374696F6E733E0A00205A00205900204A
:102BA000204D363636205800456E6473746F7020A1
:102BB00061646A7573746D656E743A0A00205A0018
:102BC000204A002020473239205720490020204D3C
:102BD0003432302053004175746F20426564204CBC
:102BE0006576656C696E673A0A00204500205A00D8
:102BF00020590020580020540020530020204D323E
:102C0000303520420020453C6D61785F655F6A6524
:102C1000726B3E0020583C6D61785F785F6A657228
:102C20006B3E20593C6D61785F795F6A65726B3EDF
:102C3000205A3C6D61785F7A5F6A65726B3E004135
:102C40006476616E6365643A20423C6D696E5F73C1
:102C500065676D656E745F74696D655F75733E2041
:102C6000533C6D696E5F66656564726174653E2094
:102C7000543C6D696E5F74726176656C5F66656504
:102C800064726174653E0020540020520020204D83
:102C9000323034205000416363656C657261746941
:102CA0006F6E2028756E6974732F7332293A205025
:102CB0003C7072696E745F616363656C3E20523C68
:102CC000726574726163745F616363656C3E205406
:102CD0003C74726176656C5F616363656C3E0A008B
:102CE000204500205A0020590020204D323031204C
:102CF00058004D6178696D756D20416363656C6541
:102D0000726174696F6E2028756E6974732F7332E7
:102D1000293A0A00204500205A0020590020204D61
:102D20003230332058004D6178696D756D206665CD
:102D3000656472617465732028756E6974732F738E
:102D4000293A0A00204500205A0020590020204D31
:102D50003932205800537465707320706572207585
:102D60006E69743A0A0020204D3230302044300A17
:102D70000020204D323030204400204469736162CD
:102D80006C65640A0046696C616D656E74207365DC
:102D90007474696E67733A0020204D3134392043D2
:102DA000203B20556E69747320696E2043656C73F7
:102DB0006975730A002020473231202020203B0013
:102DC000526573656E643A20006F6B0020746F6FFC
:102DD000206C6F6E6720657874727573696F6E20F2
:102DE00070726576656E7465640A0020636F6C644A
:102DF00020657874727573696F6E20707265766580
:102E00006E7465640A0000002100240027002A0077
:102E10002D003000330001010000040107010A0108
:102E200000002200250028002B002E003100340075
:102E300002010000050108010B0153746570732F36
:102E40006D6D004A65726B00416363656C6572610C
:102E500074696F6E0056656C6F63697479005072A7
:102E60006F6265205A204F66667365740050726FFA
:102E70006265205A204F666673657400436F6E74F6
:102E8000726F6C004C6F6164206D6D004C6F6164FB
:102E9000206D6D004C6F6164206D6D00556E6C6F20
:102EA0006164206D6D00556E6C6F6164206D6D0006
:102EB000556E6C6F6164206D6D0046696C2E204408
:102EC00069612E0046696C2E204469612E004F66B0
:102ED00066004F6E20004520696E206D6D33004303
:102EE0006F6E74726F6C0043616E6E6F7420656EEE
:102EF000746572207375626469723A2000052E2E23
:102F0000004D61696E004D3630302042302054252E
:102F100064004D37303120542564004D3730322065
:102F20003B2564004D3730322054256400436861EE
:102F30006E67652066696C616D656E7400507265C0
:102F40006865617420414253005072656865617420
:102F500020504C41004368616E67652066696C6172
:102F60006D656E74005052494E5420504155534582
:102F70004400554E4C4F41442046494C414D454E2E
:102F800054004C4F41442046494C414D454E54005D
:102F90005075726765206D6F726500436F6E74695E
:102FA0006E756500524553554D45204F5054494F5D
:102FB0004E533A0020204E6F7A7A6C653A200063B7
:102FC00068616E6765006F66207468652066696C6D
:102FD000616D656E74005761697420666F7220734D
:102FE000746172740020204E6F7A7A6C653A20000A
:102FF00066696C616D656E7420756E6C6F616400DE
:103000005761697420666F720020204E6F7A7A6C67
:10301000653A2000506C6561736520776169742E94
:103020002E2E0048656174696E67206E6F7A7A6C27
:10303000650020204E6F7A7A6C653A2000686561E1
:1030400074206E6F7A7A6C652E00507265737320EF
:10305000627574746F6E20746F0020204E6F7A7AE0
:103060006C653A2000746F20636F6E74696E7565CD
:103070002E2E2E00616E642070726573732062754F
:1030800074746F6E00496E736572742066696C614A
:103090006D656E740020204E6F7A7A6C653A200060
:1030A00066696C616D656E74206C6F616400576158
:1030B000697420666F720020204E6F7A7A6C653AD0
:1030C000200066696C616D656E742070757267654D
:1030D000005761697420666F72004D3234004D32C2
:1030E0003320257300556E6B6E6F776E20636F6DA6
:1030F0006D616E643A202200496E736572742066B9
:10310000696C616D656E7420616E642070726573A8
:103110007320627574746F6E20286F72204D313089
:1031200038290A00486F6D696E67206661696C65B1
:1031300064007A5F6D61783A20007A5F6D696E3A5B
:103140002000795F6D61783A2000785F6D61783A90
:1031500020005265706F7274696E6720656E6473CB
:10316000746F70207374617475730A0048617264BF
:10317000636F6465642044656661756C7420536593
:103180007474696E6773204C6F616465640A00B87B
:103190000B0000B80B0000B80B0000B80B000000DB
:1031A00000484300004843000048430000484200F4
:1031B00000A0420000A0420000A0420000C0420067
:1031C0001E01FA0011241FBECFEFD1E2DEBFCDBF3A
:1031D00000E00CBF13E0A0E0B2E0E2E3FFE702E0B2
:1031E0000BBF02C007900D92A236B107D9F724E1B8
:1031F000A2E6B3E001C01D92A33DB207E1F718E1DA
:10320000C1EED8E100E006C021970109802FFE0140
:103210000F94F73EC03ED10780E00807A9F70F944E
:10322000F9280D94883F0C9400002F923F924F9202
:103230005F926F927F928F929F92AF92BF92CF9246
:10324000DF92EF92FF920F931F93CF93DF93CDB74F
:10325000DEB7C05AD1090FB6F894DEBF0FBECDBF9E
:103260000091DB0520E6029F80011124055A1B4FC7
:103270008091030780FF1AC0E8E1F1E284917F01A9
:103280003FEFE31AF30A811102C0780104C00E94E3
:10329000F93FF701F3CFD7018D917D01882319F014
:1032A0000E94F93FF8CF8AE00E94F93F1092810313
:1032B000109280038FE38093890310928803109209
:1032C000870310927C0310927D0310927E0310926C
:1032D0007F03C8018C01FC01208101962032D1F3CB
:1032E0002E34C9F4818190ED980F9A3020F08D3200
:1032F00011F08B3281F40E5F1F4FF8010F5F1F4FEB
:10330000208120532A30C8F3CF018C010196D801C7
:103310002C912032D1F31093A70F0093A60F7801C0
:10332000BFEFEB1AFB0AF801B0806AE270E0C70158
:103330000F94453F009731F0FC0131978081803236
:10334000E1F31182FDE4BF1641F094E5C92EBC14EF
:1033500021F087E4D82EBD100FC1F70180812FEF37
:10336000E21AF20A8032C9F380538A3008F004C1AD
:10337000B092890320918703309188034AE0319607
:10338000429FC001439F900D1124DF0111972C91A2
:10339000022E000C330B20533109280F391F808176
:1033A00080538A3060F33093880320938703CF01E2
:1033B000FC01019640814032D9F3CF014DE4B416AF
:1033C00069F040917C0350917D0360917E03709180
:1033D0007F03209080033090810354C02E3131054B
:1033E00091F03CF42731310571F02C31310549F76A
:1033F0000AC0253731052CF32737310524F0203A50
:1034000053E03507F1F6F0938103E0938003B4C0F5
:10341000B1E27B1609F449C0BFEB7B0EB9E1CB2EBC
:10342000C71408F489C0CF01FC01A0800196A0E276
:10343000DA2EAD14C9F380ED8A0D8A3008F054C03D
:10344000CF01872C912CC12CD12C7601C39404C0C0
:10345000CC0CDD1CEE1CFF1C7A94D2F74C295D29A4
:103460006E297F29009709F465C0A82EA01AC4010F
:103470008E599C4FDC01AC92808181548A3108F0D6
:1034800065C0CF01FC013196DC017C907110C0CF8A
:10349000309281032092800340937C0350937D03FC
:1034A00060937E0370937F0367C01DE4C12EBC1040
:1034B000B3CF2032310509F0AFCF40937C03509356
:1034C0007D0360937E0370937F03F0938103E09309
:1034D000800363E270E0CF010F94453F009709F449
:1034E0004BC0DC011C9248C01EE2E12EAE1002C0AF
:1034F000818111C08DE2C82EAC1421F0BBE2FB2EFD
:10350000AF100DC0818190ED980F9A3008F498CFDC
:103510008E3229F4828180538A3008F491CF2114AD
:10352000310411F00C94F8351F0181E0281A31089C
:103530000C94F835A12C9BCF2114310409F09CCFB9
:103540001C019ACF90ED980F9A3040F4AE2E9F2E2A
:1035500081918111F7CF8A2D992D07C093ED980F96
:103560009230A0F38B3291F3F6CFFC010196A0804C
:10357000B0E2AB16D1F385CF21E02093B10F80915B
:1035800089038D3411F40C940E24843511F40C94B9
:10359000AD35873411F00C94F135E0908703F0904D
:1035A0008803ECE1EE16F10411F40C94D722CCF46C
:1035B00024E0E216F1044CF432E0E316F1040CF0DE
:1035C00069C0F7FE3BC00C940A2444E0E416F10401
:1035D00009F4BAC75BE1E516F10409F4B9C70C9424
:1035E0000A248AE2E816F10409F4EDC78CF4AEE18E
:1035F000EA16F10409F4E3C70CF4DDC7E1E2EE16C4
:10360000F10411F00C940A240E9448470C94F335FD
:10361000FBE5EF16F10411F40C9492232CE5E2166D
:10362000F10411F40C9496233AE5E316F10411F039
:103630000C940A24109286030C94F33580912A028C
:10364000882311F40C94F3358AE50E94783B482FC7
:1036500089E5C056DF4F4883C05AD0400E94783B6E
:10366000682F88E5C156DF4F6883CF59D0400E944C
:10367000783BC056DF4F4881C05AD040C156DF4F1B
:103680006881CF59D0400E94034081110C94F335DA
:103690000C94FC3541E061E081E00E94034081111F
:1036A0000C94F33580912A02882311F40C94F3359D
:1036B00011E042E0E416F10409F010E00E94BA9F24
:1036C00082E50E94BF3B882309F444C10E94453B28
:1036D0006B017C014090290750902A0760902B07CE
:1036E00070902C0780912D0790912E07A0912F07A5
:1036F000B09130078CAB9DABAEABBFAB2091B20F9E
:103700003091B30F4091B40F5091B50F28AF39AF3E
:103710004AAF5BAF8091B60F9091B70FA091B80FF1
:10372000B091B90F24968CAF9DAFAEAFBFAF2497C9
:1037300020E030E0A901C701B6010F944A37882381
:1037400009F4E8C6A301920168AD79AD8AAD9BADDD
:103750000F944A3781110FC02CA93DA94EA95FA92A
:1037600024966CAD7DAD8EAD9FAD24970F944A37F6
:10377000882309F4CFC620E030E0A901C701B601D3
:103780000F944A37881F8827881F18130BC020E022
:1037900030E040E85FE360962CAF3DAF4EAF5FAFE7
:1037A00060970AC080E090E0A0E8BFEB60968CAF25
:1037B0009DAFAEAFBFAF6097A301920168AD79AD89
:1037C0008AAD9BAD0F94913B28966CAF7DAF8EAFC9
:1037D0009FAF28972CA93DA94EA95FA924966CAD4F
:1037E0007DAD8EAD9FAD24970F94913B2C966CAF21
:1037F0007DAF8EAF9FAF2C9728962CAD3DAD4EADD3
:103800005FAD2897CA01B9010F94AF374B015C0136
:103810002C962CAD3DAD4EAD5FAD2C97CA01B901D4
:103820000F94AF379B01AC01C501B4010F94923BDB
:103830000F944B3E6CAF7DAF8EAF9FAF20E030E07A
:1038400040E05FE30F94AF374B015C01A7019601A5
:10385000C701B6010F94AF376B017C01A50194013C
:10386000C501B4010F94AF379B01AC01C701B6018C
:103870000F94913B0F944B3E9B01AC0160966CAD55
:103880007DAD8EAD9FAD60970F94AF374B015C015E
:1038900028AD39AD4AAD5BADC301B2010F94923B87
:1038A00020E030E040E05FE30F94AF376B017C0134
:1038B0002C966CAD7DAD8EAD9FAD2C9790582CADF8
:1038C0003DAD4EAD5FAD0F946E3C9B01AC01C501AB
:1038D000B4010F94AF379B01AC01C701B6010F943F
:1038E000923BA30192010F94913B6B017C012496C2
:1038F0002CAD3DAD4EAD5FAD24976CA97DA98EA9D1
:103900009FA90F94923B20E030E040E05FE30F94EA
:10391000AF372B013C012CAD3DAD4EAD5FAD2896D0
:103920006CAD7DAD8EAD9FAD28970F946E3C9B0125
:10393000AC01C501B4010F94AF379B01AC01C301C9
:10394000B2010F94923B2CA93DA94EA95FA90F94F7
:10395000913B14C089E40E94BF3B882329F00E9458
:10396000453B6B017C0103C0C12CD12C76018AE45C
:103970000E94BF3B8823D9F00E94453B68AF79AFD6
:103980008AAF9BAF20E030E0A901C701B6010F94D8
:103990004A3781111AC020E030E0A90168AD79AD45
:1039A0008AAD9BAD0F944A3781110FC0B3C520E09B
:1039B00030E0A901C701B6010F944A37882309F402
:1039C000A9C518AE19AE1AAE1BAEA7019601505884
:1039D0002CAB3DAB4EAB5FAB48AC59AC6AAC7BACEF
:1039E00077FA709477F87094CA01B9010F94AF37E1
:1039F0004B015C01A3019201C301B2010F94AF37E7
:103A00009B01AC01C501B4010F94923B0F944B3E56
:103A1000A0966CAF7DAF8EAF9FAFA0978091290726
:103A200090912A07A0912B07B0912C0724968CAF78
:103A30009DAFAEAFBFAF2497A7019601BC01CD01EA
:103A40000F94923BAC966CAF7DAF8EAF9FAFAC97AF
:103A5000C0902D07D0902E07E0902F07F0903007F0
:103A60002896CCAEDDAEEEAEFFAE289728AD39ADD0
:103A70004AAD5BADC701B6010F94923BE0966CAFC7
:103A80007DAF8EAF9FAFE097C090B20FD090B30FD5
:103A9000E090B40FF090B50F2C96CCAEDDAEEEAE4C
:103AA000FFAE2C97AC962CAD3DAD4EAD5FADAC9757
:103AB000C701B6010F94913B6B017C012091B60FB9
:103AC0003091B70F4091B80F5091B90F60962CAF5D
:103AD0003DAF4EAF5FAF6097E0962CAD3DAD4EADC4
:103AE0005FADE09760966CAD7DAD8EAD9FAD60979C
:103AF0000F94913B4B015C0180913107909132070B
:103B0000A0913307B091340764968CAF9DAFAEAFF0
:103B1000BFAF64979C01AD016091BA0F7091BB0F6C
:103B20008091BC0F9091BD0F0F94913B6CAF7DAF16
:103B30008EAF9FAF2091BE0F3091BF0F4091C00F4D
:103B40005091C10FA4962CAF3DAF4EAF5FAFA4977D
:103B50008091350790913607A0913707B0913807CB
:103B600068968CAF9DAFAEAFBFAF6897A7019601C7
:103B70006CA97DA98EA99FA90F94AF376C966CAFE5
:103B80007DAF8EAF9FAF6C97A5019401C301B201C9
:103B90000F94AF379B01AC016C966CAD7DAD8EADD3
:103BA0009FAD6C970F94923B6C966CAF7DAF8EAFD0
:103BB0009FAF6C97A50194016CA97DA98EA99FA9BF
:103BC0000F94AF374B015C01A7019601C301B2010D
:103BD0000F94AF379B01AC01C501B4010F94913B29
:103BE0006C962CAD3DAD4EAD5FAD6C970F94053C22
:103BF0006B017C0120E030E0A9010F944A3787FF78
:103C00000AC02BED3FE049EC50E4C701B6010F9428
:103C1000923B6B017C01112351F02BED3FE049EC0D
:103C200050E4C701B6010F94913B6B017C0120E089
:103C300030E0A901C701B6010F944A37811128C0AD
:103C40002C962CAD3DAD4EAD5FAD2C9724966CAD52
:103C50007DAD8EAD9FAD24970F944A37811118C06A
:103C600060962CAD3DAD4EAD5FAD609728966CADC6
:103C70007DAD8EAD9FAD28970F944A37811108C056
:103C80007BEDC72E7FE0D72E79ECE72E70E4F72E80
:103C9000A7019601A0966CAD7DAD8EAD9FADA097AE
:103CA0000F94AF374B015C0120E030E0A9016CAD0F
:103CB0007DAD8EAD9FAD0F944A378823D9F0A50115
:103CC0009401C501B4010F94AF374B015C012CADD9
:103CD0003DAD4EAD5FADCA01B9010F94AF379B0149
:103CE000AC01C501B4010F94923B0F944B3E4B01C4
:103CF0005C010DC020E030E0A901C501B4010F94C2
:103D0000063E87FF04C0B7FAB094B7F8B0942FE628
:103D100032E143E85AE3C501B4010F944A3787FF03
:103D200002C00C94F335C501B4010F94073D0F9404
:103D3000DB3C2A967FAF6EAF2A97DB01AB2B31F4C9
:103D4000E1E0F0E02A96FFAFEEAF2A972A962EAD7B
:103D50003FAD2A97B90180E090E00F944E374B01B8
:103D60005C019B01AC01C701B6010F946E3C249627
:103D70006CAF7DAF8EAF9FAF2497A50194016CAD62
:103D80007DAD8EAD9FAD0F946E3CEC966CAF7DAF6C
:103D90008EAF9FAFEC9768962CAD3DAD4EAD5FAD4D
:103DA0006897A4966CAD7DAD8EAD9FADA4970F9432
:103DB000913BA50194010F946E3CC458DF4F68837A
:103DC00079838A839B83CC57D04024962CAD3DAD1C
:103DD0004EAD5FAD2497CA01B9010F94AF3720E013
:103DE00030E040E05FE30F94AF379B01AC0160E04F
:103DF00070E080E89FE30F94913B6C966CAF7DAFD1
:103E00008EAF9FAF6C976496CCACDDACEEACFFACE4
:103E10006497C986DA86EB86FC866896CCACDDAC06
:103E2000EEACFFAC6897CD86DE86EF86F88A6091AF
:103E3000440270914502072E000C880B990B0F94D9
:103E40005037209118023091190240911A02509176
:103E50001B020F94AF372AE037ED43E25CE30F9487
:103E6000AF37E4966CAF7DAF8EAF9FAFE4970F9402
:103E70005D0B9B01AC0128533F4F4F4F5F4FE896BE
:103E80002CAF3DAF4EAF5FAFE8978091E0099091C6
:103E9000E109A091E209B091E30968968CAF9DAF6A
:103EA000AEAFBFAF6897C090E409D090E509E0904D
:103EB000E609F090E709A096CCAEDDAEEEAEFFAE1F
:103EC000A0972091E8093091E9094091EA095091C1
:103ED000EB09A4962CAF3DAF4EAF5FAFA497FCA803
:103EE000FCAEFDA82596FFAE25972EA83FA821E0A1
:103EF00030E062963FAF2EAF629739E12D963FAF2B
:103F00002D976296EEADFFAD62972A96CEACDFACF0
:103F10002A97EC15FD0509F4E9C10E9484920F94DB
:103F20005D0BDC01CB01E896CCACDDACEEACFFACBC
:103F3000E8978C199D09AE09BF09B7FD11C00F9410
:103F40005D0B9B01AC0128533F4F4F4F5F4FE896ED
:103F50002CAF3DAF4EAF5FAFE89780E00E941C856D
:103F60002D963FAD2D9731502D963FAF2D97332392
:103F700009F448C06C962CAD3DAD4EAD5FAD6C976D
:103F8000C301B2010F94AF376B017C0124962CADB5
:103F90003DAD4EAD5FAD24976CAD25967FAD2597B9
:103FA000C1010F94AF37A70196010F94923B7B019B
:103FB0008C016C962CAD3DAD4EAD5FAD6C976CAD8C
:103FC00025967FAD2597C1010F94AF374B015C015A
:103FD00024962CAD3DAD4EAD5FAD2497C301B2012B
:103FE0000F94AF379B01AC01C501B4010F94913B15
:103FF0006CAF25967FAF25971C01C701D8012C0116
:104000003D0158C062964EAD5FAD6297BA0180E047
:1040100090E00F944E3724962CAD3DAD4EAD5FAD84
:1040200024970F94AF374B015C010F946B3C6B01ED
:104030007C01C501B4010F94413E4B015C01A70115
:1040400096016CA97DA98EA99FA90F94AF372B016A
:104050003C01A501940168AD79AD8AAD9BAD0F948B
:10406000AF379B01AC01C301B2010F94923B6CAF1F
:1040700025967FAF25971C01A50194016CA97DA908
:104080008EA99FA90F94AF374B015C01A701960140
:1040900068AD79AD8AAD9BAD0F94AF379B01AC0194
:1040A000C501B4010F94913B2B013C0159E12D96C0
:1040B0005FAF2D972CAD25963FAD2597A101AC960E
:1040C0006CAD7DAD8EAD9FADAC970F94923B698387
:1040D0007A838B839C83A3019201E0966CAD7DADC6
:1040E0008EAD9FADE0970F94923B6D837E838F835F
:1040F0009887EC962CAD3DAD4EAD5FADEC976985E4
:104100007A858B859C850F94923B69877A878B870C
:104110009C87C458DF4F288139814A815B81CC5705
:10412000D0406D857E858F8598890F94923B6D87F1
:104130007E878F87988BCE0101960E9422FF809107
:104140005F09882309F442C0CE0101960F94320121
:104150006B017C019B01AC016091390770913A07BA
:1041600080913B0790913C070F94923B60933907F5
:1041700070933A0780933B0790933C07A701960101
:1041800060913D0770913E0780913F0790914007F5
:104190000F94923B60933D0770933E0780933F07D7
:1041A00090934007A70196016091410770914207E3
:1041B00080914307909144070F94923B609341078D
:1041C0007093420780934307909344071CA21DA25B
:1041D0001EA21FA21091FF0668962CAD3DAD4EADFC
:1041E0005FAD68976091390770913A0780913B07FE
:1041F00090913C070F94913BA8966CAF7DAF8EAF2A
:104200009FAFA897A0962CAD3DAD4EAD5FADA097EA
:1042100060913D0770913E0780913F079091400764
:104220000F94913B4B015C01A4962CAD3DAD4EAD7E
:104230005FADA49760914107709142078091430759
:10424000909144070F94913B6B017C01A8962CAD93
:104250003DAD4EAD5FADA897CA01B9010F94AF3720
:10426000A8966CAF7DAF8EAF9FAFA897A5019401C4
:10427000C501B4010F94AF379B01AC01A8966CAD9A
:104280007DAD8EAD9FADA8970F94923B4B015C0125
:10429000A7019601C701B6010F94AF379B01AC018E
:1042A000C501B4010F94923B0F944B3EE4962CADA4
:1042B0003DAD4EAD5FADE4970F94AF3768A379A3E2
:1042C0008AA39BA3CE0184966C01E12E8E01005E31
:1042D0001F4F9E01235F3F4F41E457E06DE377E0BE
:1042E00089E397E00E9469C381114CC082EB9FE093
:1042F0000E9422FF80915F09882309F477C082EB36
:104300009FE00F9432016B017C019B01AC01609135
:10431000390770913A0780913B0790913C070F94C1
:10432000923B6093390770933A0780933B079093D1
:104330003C07A701960160913D0770913E0780916F
:104340003F07909140070F94923B60933D07709315
:104350003E0780933F0790934007A7019601609125
:1043600041077091420780914307909144070F9451
:10437000923B609341077093420780934307909369
:10438000440734C0C0903907D0903A07E0903B070B
:10439000F0903C076896CCAEDDAEEEAEFFAE68970F
:1043A00020913D0730913E0740913F0750914007D3
:1043B000A0962CAF3DAF4EAF5FAFA0978091410765
:1043C00090914207A0914307B0914407A4968CAF07
:1043D0009DAFAEAFBFAFA4976296AEADBFAD6297D3
:1043E00011966296BFAFAEAF62978BCD68962CAD3B
:1043F0003DAD4EAD5FAD68976091390770913A075A
:1044000080913B0790913C070F94913B6B017C019D
:10441000A0962CAD3DAD4EAD5FADA09760913D0730
:1044200070913E0780913F07909140070F94913B18
:104430004B015C01A4962CAD3DAD4EAD5FADA49794
:104440006091410770914207809143079091440722
:104450000F94913B2B013C01A7019601C701B601C6
:104460000F94AF376B017C01A5019401C501B40124
:104470000F94AF379B01AC01C701B6010F94923B7B
:104480006B017C01A3019201C301B2010F94AF370C
:104490009B01AC01C701B6010F94923B6B017C01FB
:1044A00020E030E0A9010F944A37882341F11CA293
:1044B0001DA21EA21FA21091FF06C701B6010F94F4
:1044C0004B3EE4962CAD3DAD4EAD5FADE4970F9401
:1044D000AF3768A379A38AA39BA39E012C5D3F4FAE
:1044E0006901E12E8E01005E1F4F2EEB3FE041E49B
:1044F00057E06DE377E089E397E00E9469C380E1CC
:10450000E2EBFFE0A9E2B7E001900D928A95E1F7B6
:104510000C94F335E3E6FEE184918F010F5F1F4FAA
:10452000882321F00E94F93FF801F6CFE7E9F2E095
:1045300084918F010F5F1F4F882311F40C94F33582
:104540000E94F93FF801F4CF0E94749F0C94F33558
:1045500041E061E081E00E94034081110C94F33559
:1045600080E090E0A4EDB2EC89839A83AB83BC83B6
:104570001D821E821F82188680E090E0A0EFB1E4C9
:1045800089879A87AB87BC8780E50E94BF3B8823D9
:1045900019F00E94153B01C060E068A3BE016F5F87
:1045A0007F4FCE0180960F9401200C94F3350E942A
:1045B00041830C94F3350E94E2990C94F3350E94E8
:1045C000EA980C94F33541E061E081E00E940340F9
:1045D00081110C94F33580912A02882311F40C94F4
:1045E000F33589E40E94BF3B182F882321F00E94F5
:1045F000153B062F01C000E08AE40E94BF3BE82E75
:10460000882331F00E94153BF62E111104C00AC018
:10461000F12C1123B9F0093010F40C94DB37EDEADA
:10462000F2E004C038E03F15D0F30CC084918F0154
:104630000F5F1F4F882311F40C94F3350E94F93F4C
:10464000F801F4CF0E94913C1123E9F020915B091D
:1046500030915C090203B001039F700D1124209179
:10466000F9033091FA03620F731F072E000C880BB9
:10467000990B0F9450376093B20F7093B30F8093E0
:10468000B40F9093B50FEE20F1F020915D093091B9
:104690005E094F2D4203B001439F700D112480919C
:1046A000FB039091FC03680F791F072E000C880B09
:1046B000990B0F9450376093B60F7093B70F809398
:1046C000B80F9093B90F80E50E94BF3B882319F083
:1046D0000E94363B03C080E50E94783B86E40E943E
:1046E000BF3B8823D9F00E94453B6B017C0120E051
:1046F00030E0A9010F94063E181684F420E030E063
:1047000040E752E4C701B6010F946E3C6093180273
:104710007093190280931A0290931B020F9448031E
:104720000C94F335209386030C94F33541E6242E44
:1047300042E0342E54E8E52E59E0F52E69E2C62E0B
:1047400067E0D62E00E010E0D1018D911D010E949E
:10475000BF3B882309F44AC00E94453B2B013C0122
:10476000133049F0F70120813181428153810F9448
:10477000913B2B013C01D6012D913D914D915C91D6
:10478000C301B2010F94913B4B015C012DEB37E368
:1047900046E855EB0F94063E87FD0AC02DEB37E344
:1047A00046E855E3C501B4010F944A371816F4F4EE
:1047B000133051F440923507509236076092370714
:1047C0007092380701E012C0A5019401F7016081E1
:1047D0007181828193810F94923BD7016D937D9378
:1047E0008D939C931397812F0E9432391F5FB4E001
:1047F000EB0EF11CE4E0CE0ED11C143009F0A4CF76
:10480000002321F085E397E00E9437C20E9490B216
:104810000C94F3350F94771A0C94F3358091870339
:10482000909188038637910509F41EC50CF0DCC011
:104830008D34910509F47CC40CF058C08931910580
:1048400009F4EFC21CF58431910509F45DC27CF4D2
:104850008131910509F449C22CF4029708F4CBC1C7
:104860000C94AA35429709F4EDC40C94AA3586310C
:10487000910509F490C20CF48AC28731910509F4BC
:1048800090C2489709F4A3C20C94AA358E319105C1
:1048900009F465C384F48B31910509F4DEC20CF48C
:1048A000CEC28C31910509F450C34D9711F40C948C
:1048B000F3350C94AA358A32910509F431C44CF4CD
:1048C0008F31910509F428C4809709F4D9C30C9459
:1048D000AA358B34910509F427C48C34910511F065
:1048E0000C94AA350E948BEE0C94F3358A36910510
:1048F00009F471C40CF041C08335910509F49EC4DC
:10490000DCF48035910509F47CC44CF48E349105B7
:1049100011F00C94AA350E9451E50C94F3358135C1
:10492000910509F472C48235910511F00C94AA35F1
:10493000109285030C94F3358C35910509F486C4E7
:104940006CF48435910509F47DC48535910511F029
:104950000C94AA350E949DB50C94F33588369105C8
:1049600009F4EAC38936910511F00C94AA350E9426
:1049700034E51092B10F0C94E1378F36910509F4AC
:104980000AC49CF48C36910509F409C40CF427C4BC
:104990008D36910509F413C48E36910511F00C94EF
:1049A000AA350E9455B70C94F3358237910509F466
:1049B00051C46CF48037910509F4F5C38137910532
:1049C00011F00C94AA350E94B4B60C94F3358337D9
:1049D000910509F445C48537910511F00C94AA3569
:1049E0000E9434B20C94F3358F32F1E09F0711F43A
:1049F0000C94302D0CF06FC0893C910509F491C4E2
:104A000084F58C38910509F4DEC39CF48837910550
:104A100009F432C40CF42CC48937910509F433C469
:104A20008D37910511F00C94AA350E9446B10C9473
:104A3000F3358B39910509F4BEC34CF481399105E6
:104A400011F00C94AA350E943DB60C94F3358E3BC0
:104A5000910509F4BCC3883C910509F41AC40C946F
:104A6000AA358C3D910509F428C6D4F48C3C9105F7
:104A700009F45BC44CF48B3C910511F00C94AA35FD
:104A80000E94FFB00C94F3358D3C910509F4C5C428
:104A9000833D910511F00C94AA35E8E1F1E23EC5A1
:104AA0008C3231E0930709F4B7C654F48D3D91057B
:104AB00009F412C6823E910509F47FC60C94AA350A
:104AC0008D3251E0950709F4D1C68E32914009F438
:104AD00070C70C94AA35863FB1E09B0711F40C9483
:104AE00024320CF04BC08239F1E09F0711F40C9492
:104AF000183204F5833631E0930711F40C94123226
:104B00003CF48033914011F40C9495310C94AA3507
:104B10008039A1E09A0711F40C9415328139914043
:104B200011F00C94AA3581E00E94593F0E9490B286
:104B30000C94F335853AE1E09E0711F40C941E3293
:104B400074F48A3921E0920709F431C3843A914020
:104B500011F00C94AA350E947DB30C94F335843F78
:104B600041E0940711F40C942132853F914011F0FB
:104B70000C94AA350F94E6260C94F3358939A2E0FB
:104B80009A0711F40C94A634B4F4883FE1E09E0730
:104B900011F40C94333214F40C942732883522E04B
:104BA000920711F40C9456328B35924011F40C9408
:104BB00021340C94AA358B3843E0940711F40C94FB
:104BC000F3356CF48A39A2E09A0711F40C9411358C
:104BD0008335934011F40C9434350C94AA35803A03
:104BE000E3E09E0709F48BC2873E934011F40C94D6
:104BF00098350C94AA35A0908003B090810380E58D
:104C00000E94BF3B882359F00E94053B6B017C0149
:104C100011E0672B682B692B31F410E004C010E021
:104C2000C12CD12C760183E50E94BF3B882311F46F
:104C30000C9401360E94453B20E030E04AE754E402
:104C40000F94AF370F94DB3C6B017C0111110BC04B
:104C5000672B682B692B39F4A114B10421F0D5011D
:104C60008C91811102C010E001C011E00E944DD171
:104C7000112329F061E0C5010E94D77C05C060E0E6
:104C80008CEC92E00E949D7C83E08093B10F81E0E8
:104C90008093B00FC114D104E104F104F1F00F943A
:104CA0005D0BC60ED71EE81EF91E0F945D0BDC01CE
:104CB000CB018C199D09AE09BF09B7FD06C00E9442
:104CC000DFBA1092B00F0C94F3358091B00F8823A7
:104CD000B1F380E00E941C85E8CF8091B00F88235B
:104CE00071F380E00E941C85F8CF60E08FED92E0C8
:104CF0000E949D7C5F988A988091080181708093C2
:104D0000060112980C94F335E7EFF2E084918F01DD
:104D10000F5F1F4F882321F00E94F93FF801F6CF63
:104D200010929D0C40E050E0BA0180E59AE00E94AC
:104D3000176E8BE1E0E5FAE0DE01159601900D9229
:104D40008A95E1F780914E0A90914F0A9C838B835C
:104D500087E193E09A83898340E050E0BE016F5F72
:104D60007F4F80E090E00E9498DFCE0101960E9484
:104D7000A984E8EEF2E084918F010F5F1F4F882332
:104D800011F40C94F3350E94F93FF801F4CF0E941E
:104D90004AC00C94F3351092200A1092210A0C9408
:104DA000F335E0918003F09181038081882329F01D
:104DB000803209F410823196F8CF40E061E08091B2
:104DC0008003909181030E945ABE0C94F33580E0D9
:104DD00090E0A0EFB1E489839A83AB83BC8318A2EF
:104DE00019A21AA21BA21CA21DA21EA21FA2809180
:104DF000AE09882359F020E0AE014F5F5F4FBE013E
:104E0000605E7F4FCE0184960F9489188091210AAD
:104E1000882319F081E08093200A0F9483220C9458
:104E2000F3351092200A0E948BEE88E093E0909375
:104E3000A40F8093A30F0E94E2390C94F335809164
:104E4000210A882311F40C94F33583E50E94BF3BBB
:104E500081110C9406360C94F33583E40E94783B60
:104E6000882399F1EAE3F3E084918F010F5F1F4FEC
:104E7000882321F00E94F93FF801F6CF8091EB0BD7
:104E8000882391F0BE016F5F7F4F88EE9BE00E9408
:104E900042758E010F5F1F4FF80181918F018823AA
:104EA00079F00E94F93FF8CFEDE0F3E084918F01B3
:104EB0000F5F1F4F882321F00E94F93FF801F6CFC2
:104EC0008AE00E94F93F0C94F3358091210A8823EF
:104ED00071F18091200A882351F1E7E1F3E0849198
:104EE0008F010F5F1F4F882321F00E94F93FF801C7
:104EF000F6CF6091990C70919A0C80919B0C9091D7
:104F00009C0C4AE00E943E438FE20E94F93F609170
:104F1000950C7091960C8091970C9091980C4AE0AA
:104F20000E943E438AE00E94F93F0C94F335E9E287
:104F3000F3E084918F010F5F1F4F882311F40C94CD
:104F4000F3350E94F93FF801F4CF40E060E0809132
:104F50008003909181030E945ABE0C94F335809196
:104F6000210A882311F40C94F33588EE9BE00E940B
:104F7000A27088EE9BE00E94647210921F0A109249
:104F80001E0A00918003109181038091210A8823D9
:104F900011F40C94F3350E94ACDEB801CE0180967A
:104FA0000E94F4DD8C01892B11F40C94F33568A177
:104FB00079A16115710511F06C5F7F4F19821C8218
:104FC00022E0A801CE0101960E945474811102C012
:104FD000F12C14C0CE0101960E9462DD8823C1F33A
:104FE00061E0CE0101960E948770009789F325EE5B
:104FF000DC012C931C820E94286CF82ECE010196B5
:105000000E948B3CFF2011F1E9E4F3E084917F01E1
:10501000BFEFEB1AFB0A882321F00E94F93FF7014A
:10502000F5CFF80181918F01882319F00E94F93F93
:10503000F8CF8AE00E94F93F1092990C10929A0CD6
:1050400010929B0C10929C0C0C94F335E7E5F3E066
:1050500084917F012FEFE21AF20A882321F00E9447
:10506000F93FF701F5CFD8018D918D01882319F013
:105070000E94F93FF8CF8EE20E94F93F0C94F3357D
:105080008091200A81110E944DD18091210A8823AC
:1050900011F40C94F33580E50E94BF3B882319F08E
:1050A0000E94363B03C080E50E94783B182F482FB2
:1050B00061E080918003909181030E945ABE83E554
:1050C0000E94BF3B882381F00E94153BAB01BC01CD
:1050D0004093990C50939A0C60939B0C70939C0C8A
:1050E00088EE9BE00E94176E8091210A882319F0B8
:1050F00081E08093200A11110C94F3358ECE8091BB
:1051000080039091810321E020931F0A40E060E03A
:105110000E945ABE0C94F3350E94C2E60C94F335FB
:105120000E9485E60C94F3350F9483220C94F3359A
:105130000F94E1220C94F33588E690E00E94A4439A
:1051400081110C94F3358091030783FF02C00C9406
:10515000F33583E50E94BF3B8823C9F00E94453B9D
:105160000F94D63C709302076093010780E00E9481
:10517000298E0E94453B20E030E04AEA52E40F9439
:105180004A37181624F00F94E1220E94DFBA0F94D8
:1051900061230C94F3350E94DEB60C94F335109223
:1051A00046020C94F3358FE693E00E94CA840E9475
:1051B000C1B00C94F3350E9406E50C94F3350E94BF
:1051C00012E30C94F3350E94F9E20C94F3350E943B
:1051D0007DE10C94F3350E94EAE40C94F33580E50C
:1051E0000E94BF3B811106C01092A20F1092A10F26
:1051F0000C94F3350E94153B672B11F00C94F3359A
:10520000F3CF0E9413B60C94F3350E94748E0F9462
:105210006F1D1092A20F1092A10F68EE73E080E054
:1052200090E00E94E67B269A2E9A10921E0260E081
:1052300088E793E00E949D7C0C94F33520938503CE
:105240000C94F3350E94B5B50C94F3350E94FFB46D
:105250000C94F3350E944DD10E9490B20C94F3351A
:105260000E9441B20C94F3350E94E2B10C94F335E4
:105270000F941E210C94F33581E0809352048093A7
:1052800051040C94F33510925204109251040C9472
:10529000F33588EC90E00E94A44381110C94F3351F
:1052A00084E40E94783B8823C1F10E94453B11E0D1
:1052B00020E030E0A9010F944A37811101C010E0CD
:1052C00010937F0F112349F10E94453BE091310675
:1052D000B4E0EB9FF0011124E558F04F6083718337
:1052E0008283938320E030E0A90160917B0F70916D
:1052F0007C0F80917D0F90917E0F0F944A37811122
:105300000CC080E090E0A0EEBFE380937B0F909311
:105310007C0FA0937D0FB0937E0F0F940A1D0C9409
:10532000F3350E9421B10C94F33583E50E94BF3B15
:105330008823A1F00E94453B6093C2067093C30688
:105340008093C4069093C5066093BE067093BF0613
:105350008093C0069093C10610E001C011E080E583
:105360000E94BF3B882359F00E94453B6093C206D0
:105370007093C3068093C4069093C50610E082E53F
:105380000E94BF3B882359F00E94453B6093AC0FBD
:105390007093AD0F8093AE0F9093AF0F10E084E544
:1053A0000E94BF3B882361F00E94453B6093BE068C
:1053B0007093BF068093C0069093C1060C94F3359A
:1053C000112311F40C94F3354091C2065091C30699
:1053D0006091C4067091C50683E993E00F9425227D
:1053E0004091AC0F5091AD0F6091AE0F7091AF0F27
:1053F00080E993E00F9425224091BE065091BF06AC
:105400006091C0067091C1068DE893E00F9425224B
:105410008AE00E94F93F0C94F33582E40E94783BC5
:10542000882351F00E94053B6093780E7093790EAB
:1054300080937A0E90937B0E83E50E94783B8823BD
:1054400051F00E94453B60939A0670939B068093AF
:105450009C0690939D0684E50E94783B882351F03A
:105460000E94453B6093960670939706809398063A
:105470009093990688E50E94783B882351F00E941A
:10548000453B6093C6067093C7068093C806909309
:10549000C90689E50E94783B882351F00E94453B6C
:1054A0006093CA067093CB068093CC069093CD068A
:1054B0008AE50E94783B8823F1F00E94453B609387
:1054C000CE067093CF068093D0069093D1062DEC34
:1054D0003CEC4CEC5DE30F944A37181664F0E3EAB9
:1054E000F3E084918F010F5F1F4F882321F00E940A
:1054F000F93FF801F6CF85E40E94783B882311F448
:105500000C94F3350E94453B6093D2067093D3060A
:105510008093D4069093D5060C94F33584918F0133
:105520000F5F1F4F882321F00E94F93FF801F6CF4B
:10553000E9EFF3E084918F010F5F1F4F882321F083
:105540000E94F93FF801F6CFE5EFF3E084918F0177
:105550000F5F1F4F882321F00E94F93FF801F6CF1B
:10556000EDEEF3E084918F010F5F1F4F882321F050
:105570000E94F93FF801F6CF209184093091850906
:10558000409186095091870960910C0270910D023B
:1055900080910E0290910F020F94923BAB01BC01DF
:1055A0008BEE93E00F942522209188093091890990
:1055B00040918A0950918B096091100270911102FB
:1055C00080911202909113020F94923BAB01BC01A7
:1055D00088EE93E00F94252220918C0930918D095B
:1055E00040918E0950918F096091140270911502BB
:1055F00080911602909117020F94923BAB01BC016F
:1056000085EE93E00F942522EDEDF3E084918F0178
:105610000F5F1F4F882321F00E94F93FF801F6CF5A
:10562000209184093091850940918609509187091C
:105630006091000270910102809102029091030238
:105640000F94923BAB01BC018BED93E00F942522AC
:10565000209188093091890940918A0950918B09DC
:1056600060910402709105028091060290910702F8
:105670000F94923BAB01BC0188ED93E00F9425227F
:1056800020918C0930918D0940918E0950918F099C
:10569000609108027091090280910A0290910B02B8
:1056A0000F94923BAB01BC0185ED93E00F94252252
:1056B0008AE00E94F93F0C94F33583E50E94BF3BDA
:1056C000882311F40C94F3350E94153B7093450226
:1056D000609344020C94F3358DED90E00E94A44356
:1056E00081110C94F33583E50E94BF3B8823E1F1DF
:1056F0000091310610E00E94153B000F111FF801C8
:10570000EE5BFD4F718360838091310690E08C01E8
:10571000000F111F000F111FF801E25CFD4F7F0108
:10572000880F991FFC01EE5BFD4F60817181072E90
:10573000000C880B990B0F9450372AE037ED43E2A9
:105740005CE30F94AF37F801E950F94F20813181C4
:10575000428153810F94AF37D7016D937D938D9321
:105760009C9313970C94F335E8E1F1E284918F0157
:105770000F5F1F4F882321F00E94F93FF801F6CFF9
:1057800085E40E94F93F80913106805D0E94F93FD7
:10579000E0913106F0E0EE0FFF1FEE5BFD4F608100
:1057A000718189E094E00F94422285E20E94F93FE2
:1057B0008AE00E94F93F0C94F33580E50E94783B23
:1057C000882311F40C94F3350E94153BF62EC62E57
:1057D000D72E83E50E94BF3B882321F00E94153B12
:1057E0008B0102C00FEF1FEFC8010196039710F065
:1057F0000C94F335D7FE02C00C94F335E1E1F4E0EC
:105800008DE28E0F9491F91611F40C9416363196A0
:105810008E13F8CF0C94193683E50E94BF3B882382
:1058200019F00E94153B02C064E071E079A368A3FF
:1058300080E50E94BF3B882339F00E94153B693800
:10584000B3E17B0730F402C068EE73E07A836983CA
:1058500004C088E893E19A838983BE01605E7F4F2C
:10586000CE0101960E948DC10C94F33585E40E940F
:10587000BF3B811110C080E50E94783B882391F0E6
:105880000E94453B6093D6067093D7068093D80656
:105890009093D90607C00E94253B882361F3E3E675
:1058A000FEE16FC089E40E94783B882381F00E946A
:1058B000453B2CEA35EC47E25EE30F94AF3760934B
:1058C000DE067093DF068093E0069093E10684E4A1
:1058D0000E94783B882381F00E94453B2CEA35ECFE
:1058E00047E25EE30F946E3C6093DA067093DB064A
:1058F0008093DC069093DD06E8E1F1E284918F016C
:105900000F5F1F4F882321F00E94F93FF801F6CF67
:105910004091D6065091D7066091D8067091D9066D
:1059200086E494E00F9425222CEA35EC47E25EE30E
:105930006091DE067091DF068091E0069091E106AD
:105940000F946E3CAB01BC0182E494E00F942522DD
:105950002CEA35EC47E25EE36091DA067091DB06F3
:105960008091DC069091DD060F94AF37AB01BC014E
:105970008EE394E00F9425228AE00E94F93F0C9474
:10598000F33584918F010F5F1F4F882321F00E9410
:10599000F93FF801F6CFEAE4F4E084918F010F5F5C
:1059A0001F4F882311F40C94F3350E94F93FF8013E
:1059B000F4CF83E50E94783B182F882371F00E9472
:1059C000453B0F94D63C709348026093470221E018
:1059D000672B09F020E02093000780E50E94783BC8
:1059E000882361F02091470230914802232B11F067
:1059F0000E94363B809300070C94F33511110C94F0
:105A0000F335E8E1F1E284918F010F5F1F4F8823A6
:105A100021F00E94F93FF801F6CF80910007811133
:105A200003C06BE273E002C064E573E081E794E0D9
:105A30000F945B22609147027091480280E694E0E7
:105A40000F944222ECE5F4E084918F010F5F1F4F29
:105A5000882311F40C94F3350E94F93FF801F4CF38
:105A600085E40E94BF3B882321F00E94153B7B0107
:105A700002C0E12CF12C83E40E94BF3B882341F05B
:105A80000E94153BC058DF4F6883C058D04006C005
:105A900045E0C058DF4F4883C058D04085E50E949C
:105AA000BF3B882319F00E94363B03C085E50E9466
:105AB000783BC457DF4F8883CC58D040F7FC07C0F1
:105AC000812C912C76E1A72E73E4B72E06C0812C91
:105AD000912C6CE8A62E62E4B62E83E50E94BF3BB3
